{
  "contractName": "MasterchainMultiPaymentChannel",
  "abi": [
    {
      "constant": true,
      "inputs": [],
      "name": "holdTime",
      "outputs": [
        {
          "name": "",
          "type": "uint256"
        }
      ],
      "payable": false,
      "stateMutability": "view",
      "type": "function"
    },
    {
      "constant": true,
      "inputs": [
        {
          "name": "",
          "type": "address"
        },
        {
          "name": "",
          "type": "uint8"
        }
      ],
      "name": "channels",
      "outputs": [
        {
          "name": "created",
          "type": "uint256"
        },
        {
          "name": "deposited",
          "type": "uint256"
        },
        {
          "name": "spent",
          "type": "uint256"
        },
        {
          "name": "sequenceNumber",
          "type": "uint256"
        },
        {
          "name": "lastUpdate",
          "type": "uint256"
        }
      ],
      "payable": false,
      "stateMutability": "view",
      "type": "function"
    },
    {
      "constant": false,
      "inputs": [
        {
          "name": "_merchant",
          "type": "address"
        }
      ],
      "name": "closeMerchantChannel",
      "outputs": [
        {
          "name": "",
          "type": "bool"
        }
      ],
      "payable": false,
      "stateMutability": "nonpayable",
      "type": "function"
    },
    {
      "constant": false,
      "inputs": [],
      "name": "processingDeposit",
      "outputs": [
        {
          "name": "",
          "type": "bool"
        }
      ],
      "payable": true,
      "stateMutability": "payable",
      "type": "function"
    },
    {
      "constant": true,
      "inputs": [
        {
          "name": "_merchant",
          "type": "address"
        },
        {
          "name": "_sequenceNumber",
          "type": "uint256"
        },
        {
          "name": "_balanceShift",
          "type": "uint256"
        },
        {
          "name": "_close",
          "type": "bool"
        }
      ],
      "name": "validMerchantUT",
      "outputs": [
        {
          "name": "",
          "type": "bool"
        }
      ],
      "payable": false,
      "stateMutability": "view",
      "type": "function"
    },
    {
      "constant": false,
      "inputs": [
        {
          "name": "_merchant",
          "type": "address"
        },
        {
          "name": "_reserve",
          "type": "uint256"
        }
      ],
      "name": "newMerchant",
      "outputs": [
        {
          "name": "",
          "type": "bool"
        }
      ],
      "payable": false,
      "stateMutability": "nonpayable",
      "type": "function"
    },
    {
      "constant": true,
      "inputs": [],
      "name": "totalCustomersFunds",
      "outputs": [
        {
          "name": "",
          "type": "uint256"
        }
      ],
      "payable": false,
      "stateMutability": "view",
      "type": "function"
    },
    {
      "constant": false,
      "inputs": [],
      "name": "newCustomer",
      "outputs": [
        {
          "name": "",
          "type": "bool"
        }
      ],
      "payable": true,
      "stateMutability": "payable",
      "type": "function"
    },
    {
      "constant": true,
      "inputs": [
        {
          "name": "_merchant",
          "type": "address"
        },
        {
          "name": "_sequenceNumber",
          "type": "uint256"
        },
        {
          "name": "_balanceShift",
          "type": "uint256"
        },
        {
          "name": "_close",
          "type": "bool"
        }
      ],
      "name": "merchantUT",
      "outputs": [
        {
          "name": "",
          "type": "bytes32"
        }
      ],
      "payable": false,
      "stateMutability": "view",
      "type": "function"
    },
    {
      "constant": true,
      "inputs": [],
      "name": "totalMerchantFunds",
      "outputs": [
        {
          "name": "",
          "type": "uint256"
        }
      ],
      "payable": false,
      "stateMutability": "view",
      "type": "function"
    },
    {
      "constant": true,
      "inputs": [],
      "name": "owner",
      "outputs": [
        {
          "name": "",
          "type": "address"
        }
      ],
      "payable": false,
      "stateMutability": "view",
      "type": "function"
    },
    {
      "constant": false,
      "inputs": [
        {
          "name": "_customer",
          "type": "address"
        },
        {
          "name": "_sequenceNumber",
          "type": "uint256"
        },
        {
          "name": "_balanceShift",
          "type": "uint256"
        },
        {
          "name": "_vA",
          "type": "uint8"
        },
        {
          "name": "_rA",
          "type": "bytes32"
        },
        {
          "name": "_sA",
          "type": "bytes32"
        },
        {
          "name": "_vB",
          "type": "uint8"
        },
        {
          "name": "_rB",
          "type": "bytes32"
        },
        {
          "name": "_sB",
          "type": "bytes32"
        },
        {
          "name": "_close",
          "type": "bool"
        }
      ],
      "name": "publishCustomerUT",
      "outputs": [
        {
          "name": "",
          "type": "bool"
        }
      ],
      "payable": false,
      "stateMutability": "nonpayable",
      "type": "function"
    },
    {
      "constant": false,
      "inputs": [
        {
          "name": "_withdrawAmount",
          "type": "uint256"
        }
      ],
      "name": "processingWithdraw",
      "outputs": [
        {
          "name": "",
          "type": "bool"
        }
      ],
      "payable": false,
      "stateMutability": "nonpayable",
      "type": "function"
    },
    {
      "constant": true,
      "inputs": [
        {
          "name": "_counterpart",
          "type": "address"
        },
        {
          "name": "_type",
          "type": "uint8"
        },
        {
          "name": "_sequenceNumber",
          "type": "uint256"
        },
        {
          "name": "_balanceShift",
          "type": "uint256"
        },
        {
          "name": "_close",
          "type": "bool"
        }
      ],
      "name": "_ut",
      "outputs": [
        {
          "name": "",
          "type": "bytes32"
        }
      ],
      "payable": false,
      "stateMutability": "view",
      "type": "function"
    },
    {
      "constant": false,
      "inputs": [
        {
          "name": "_merchant",
          "type": "address"
        },
        {
          "name": "_sequenceNumber",
          "type": "uint256"
        },
        {
          "name": "_balanceShift",
          "type": "uint256"
        },
        {
          "name": "_vA",
          "type": "uint8"
        },
        {
          "name": "_rA",
          "type": "bytes32"
        },
        {
          "name": "_sA",
          "type": "bytes32"
        },
        {
          "name": "_vB",
          "type": "uint8"
        },
        {
          "name": "_rB",
          "type": "bytes32"
        },
        {
          "name": "_sB",
          "type": "bytes32"
        },
        {
          "name": "_close",
          "type": "bool"
        }
      ],
      "name": "publishMerchantUT",
      "outputs": [
        {
          "name": "",
          "type": "bool"
        }
      ],
      "payable": false,
      "stateMutability": "nonpayable",
      "type": "function"
    },
    {
      "constant": true,
      "inputs": [],
      "name": "totalProcessingFunds",
      "outputs": [
        {
          "name": "",
          "type": "uint256"
        }
      ],
      "payable": false,
      "stateMutability": "view",
      "type": "function"
    },
    {
      "constant": false,
      "inputs": [
        {
          "name": "_customer",
          "type": "address"
        }
      ],
      "name": "closeCustomerChannel",
      "outputs": [
        {
          "name": "",
          "type": "bool"
        }
      ],
      "payable": false,
      "stateMutability": "nonpayable",
      "type": "function"
    },
    {
      "constant": true,
      "inputs": [
        {
          "name": "_customer",
          "type": "address"
        },
        {
          "name": "_sequenceNumber",
          "type": "uint256"
        },
        {
          "name": "_balanceShift",
          "type": "uint256"
        },
        {
          "name": "_close",
          "type": "bool"
        }
      ],
      "name": "validCustomerUT",
      "outputs": [
        {
          "name": "",
          "type": "bool"
        }
      ],
      "payable": false,
      "stateMutability": "view",
      "type": "function"
    },
    {
      "constant": true,
      "inputs": [
        {
          "name": "_customer",
          "type": "address"
        },
        {
          "name": "_sequenceNumber",
          "type": "uint256"
        },
        {
          "name": "_balanceShift",
          "type": "uint256"
        },
        {
          "name": "_close",
          "type": "bool"
        }
      ],
      "name": "customerUT",
      "outputs": [
        {
          "name": "",
          "type": "bytes32"
        }
      ],
      "payable": false,
      "stateMutability": "view",
      "type": "function"
    },
    {
      "anonymous": false,
      "inputs": [],
      "name": "Deployed",
      "type": "event"
    },
    {
      "anonymous": false,
      "inputs": [
        {
          "indexed": false,
          "name": "amount",
          "type": "uint256"
        }
      ],
      "name": "ProcessingDeposit",
      "type": "event"
    },
    {
      "anonymous": false,
      "inputs": [
        {
          "indexed": false,
          "name": "amount",
          "type": "uint256"
        }
      ],
      "name": "ProcessingWithdraw",
      "type": "event"
    },
    {
      "anonymous": false,
      "inputs": [
        {
          "indexed": true,
          "name": "counterpart",
          "type": "address"
        },
        {
          "indexed": true,
          "name": "channelType",
          "type": "uint256"
        },
        {
          "indexed": false,
          "name": "volume",
          "type": "uint256"
        }
      ],
      "name": "ChannelCreated",
      "type": "event"
    },
    {
      "anonymous": false,
      "inputs": [
        {
          "indexed": true,
          "name": "counterpart",
          "type": "address"
        },
        {
          "indexed": true,
          "name": "channelType",
          "type": "uint256"
        },
        {
          "indexed": false,
          "name": "sequenceNumber",
          "type": "uint256"
        },
        {
          "indexed": false,
          "name": "spent",
          "type": "uint256"
        },
        {
          "indexed": false,
          "name": "close",
          "type": "bool"
        }
      ],
      "name": "ChannelUpdated",
      "type": "event"
    },
    {
      "anonymous": false,
      "inputs": [
        {
          "indexed": true,
          "name": "counterpart",
          "type": "address"
        },
        {
          "indexed": true,
          "name": "channelType",
          "type": "uint256"
        }
      ],
      "name": "ChannelClosed",
      "type": "event"
    },
    {
      "constant": true,
      "inputs": [
        {
          "name": "_wallet",
          "type": "address"
        },
        {
          "name": "_h",
          "type": "bytes32"
        },
        {
          "name": "_v",
          "type": "uint8"
        },
        {
          "name": "_r",
          "type": "bytes32"
        },
        {
          "name": "_s",
          "type": "bytes32"
        }
      ],
      "name": "_signatureCorrect",
      "outputs": [
        {
          "name": "",
          "type": "bool"
        }
      ],
      "payable": false,
      "stateMutability": "pure",
      "type": "function"
    }
  ],
  "bytecode": "0x6080604052336000806101000a81548173ffffffffffffffffffffffffffffffffffffffff021916908373ffffffffffffffffffffffffffffffffffffffff160217905550346004600082825401925050819055507f3fad920548ed9f22deb8333b4cc1e4f9bc36666a1c2aa30ad59a0a3bb9dcbb9260405160405180910390a1611ac98061008f6000396000f300608060405260043610610112576000357c0100000000000000000000000000000000000000000000000000000000900463ffffffff168063097d5155146101175780630cc95c4a146101425780631dda645e146101c25780633c0b24b71461021d5780633f77f4601461023f5780634c91b2ed146102ba5780635a53c8661461031f5780635f75ed161461034a57806370e0178a146103dc57806383738481146103fe5780638d1eb9af1461047d5780638da5cb5b146104a8578063bce1df4d146104ff578063c4b12efb146105cc578063c714c00014610611578063caecaf1c1461069d578063e243cd9e1461076a578063e5f363f914610795578063fbb1a528146107f0578063fcf2b4111461086b575b600080fd5b34801561012357600080fd5b5061012c6108ea565b6040518082815260200191505060405180910390f35b34801561014e57600080fd5b50610190600480360381019080803573ffffffffffffffffffffffffffffffffffffffff169060200190929190803560ff1690602001909291905050506108f1565b604051808681526020018581526020018481526020018381526020018281526020019550505050505060405180910390f35b3480156101ce57600080fd5b50610203600480360381019080803573ffffffffffffffffffffffffffffffffffffffff169060200190929190505050610934565b604051808215151515815260200191505060405180910390f35b6102256109ef565b604051808215151515815260200191505060405180910390f35b34801561024b57600080fd5b506102a0600480360381019080803573ffffffffffffffffffffffffffffffffffffffff1690602001909291908035906020019092919080359060200190929190803515159060200190929190505050610a9a565b604051808215151515815260200191505060405180910390f35b3480156102c657600080fd5b50610305600480360381019080803573ffffffffffffffffffffffffffffffffffffffff16906020019092919080359060200190929190505050610ab4565b604051808215151515815260200191505060405180910390f35b34801561032b57600080fd5b50610334610b58565b6040518082815260200191505060405180910390f35b34801561035657600080fd5b506103c2600480360381019080803573ffffffffffffffffffffffffffffffffffffffff1690602001909291908035600019169060200190929190803560ff16906020019092919080356000191690602001909291908035600019169060200190929190505050610b5e565b604051808215151515815260200191505060405180910390f35b6103e4610c9e565b604051808215151515815260200191505060405180910390f35b34801561040a57600080fd5b5061045f600480360381019080803573ffffffffffffffffffffffffffffffffffffffff1690602001909291908035906020019092919080359060200190929190803515159060200190929190505050610cce565b60405180826000191660001916815260200191505060405180910390f35b34801561048957600080fd5b50610492610ce8565b6040518082815260200191505060405180910390f35b3480156104b457600080fd5b506104bd610cee565b604051808273ffffffffffffffffffffffffffffffffffffffff1673ffffffffffffffffffffffffffffffffffffffff16815260200191505060405180910390f35b34801561050b57600080fd5b506105b2600480360381019080803573ffffffffffffffffffffffffffffffffffffffff1690602001909291908035906020019092919080359060200190929190803560ff16906020019092919080356000191690602001909291908035600019169060200190929190803560ff16906020019092919080356000191690602001909291908035600019169060200190929190803515159060200190929190505050610d13565b604051808215151515815260200191505060405180910390f35b3480156105d857600080fd5b506105f760048036038101908080359060200190929190505050610dab565b604051808215151515815260200191505060405180910390f35b34801561061d57600080fd5b5061067f600480360381019080803573ffffffffffffffffffffffffffffffffffffffff169060200190929190803560ff1690602001909291908035906020019092919080359060200190929190803515159060200190929190505050610ee7565b60405180826000191660001916815260200191505060405180910390f35b3480156106a957600080fd5b50610750600480360381019080803573ffffffffffffffffffffffffffffffffffffffff1690602001909291908035906020019092919080359060200190929190803560ff16906020019092919080356000191690602001909291908035600019169060200190929190803560ff169060200190929190803560001916906020019092919080356000191690602001909291908035151590602001909291905050506110a9565b604051808215151515815260200191505060405180910390f35b34801561077657600080fd5b5061077f611141565b6040518082815260200191505060405180910390f35b3480156107a157600080fd5b506107d6600480360381019080803573ffffffffffffffffffffffffffffffffffffffff169060200190929190505050611147565b604051808215151515815260200191505060405180910390f35b3480156107fc57600080fd5b50610851600480360381019080803573ffffffffffffffffffffffffffffffffffffffff1690602001909291908035906020019092919080359060200190929190803515159060200190929190505050611202565b604051808215151515815260200191505060405180910390f35b34801561087757600080fd5b506108cc600480360381019080803573ffffffffffffffffffffffffffffffffffffffff169060200190929190803590602001909291908035906020019092919080351515906020019092919050505061121c565b60405180826000191660001916815260200191505060405180910390f35b6201518081565b6001602052816000526040600020602052806000526040600020600091509150508060000154908060010154908060020154908060030154908060040154905085565b6000816000809054906101000a900473ffffffffffffffffffffffffffffffffffffffff1673ffffffffffffffffffffffffffffffffffffffff163373ffffffffffffffffffffffffffffffffffffffff1614806109bd57508073ffffffffffffffffffffffffffffffffffffffff163373ffffffffffffffffffffffffffffffffffffffff16145b15156109c857600080fd5b6109d3836002611236565b15156109de57600080fd5b6109e7836112ad565b915050919050565b60008060009054906101000a900473ffffffffffffffffffffffffffffffffffffffff1673ffffffffffffffffffffffffffffffffffffffff163373ffffffffffffffffffffffffffffffffffffffff16141515610a4c57600080fd5b346004600082825401925050819055507fce0e6b00dfd1166fdcef786e4b04aa52980dd6beab7895ba9be7710d52ab576f346040518082815260200191505060405180910390a16001905090565b6000610aaa85600286868661139e565b9050949350505050565b60008060009054906101000a900473ffffffffffffffffffffffffffffffffffffffff1673ffffffffffffffffffffffffffffffffffffffff163373ffffffffffffffffffffffffffffffffffffffff16141515610b1157600080fd5b610b19611490565b8211151515610b2757600080fd5b610b33836002846114b3565b1515610b3e57600080fd5b816003600082825401925050819055506001905092915050565b60025481565b6000600160028660405180807f195369676e6564204d6573736167653a0a33320000000000000000000000000081525060130182600019166000191681526020019150506020604051808303816000865af1158015610bc1573d6000803e3d6000fd5b5050506040513d6020811015610bd657600080fd5b8101908080519060200190929190505050858585604051600081526020016040526040518085600019166000191681526020018460ff1660ff1681526020018360001916600019168152602001826000191660001916815260200194505050505060206040516020810390808403906000865af1158015610c5b573d6000803e3d6000fd5b5050506020604051035173ffffffffffffffffffffffffffffffffffffffff168673ffffffffffffffffffffffffffffffffffffffff1614905095945050505050565b6000610cac336001346114b3565b1515610cb757600080fd5b346002600082825401925050819055506001905090565b6000610cde856002868686610ee7565b9050949350505050565b60035481565b6000809054906101000a900473ffffffffffffffffffffffffffffffffffffffff1681565b600080610d228c8c8c86611202565b1515610d2d57600080fd5b610d398c8c8c8661121c565b9050610d488c828b8b8b610b5e565b1515610d5357600080fd5b610d816000809054906101000a900473ffffffffffffffffffffffffffffffffffffffff1682888888610b5e565b1515610d8c57600080fd5b610d9a8c60018d8d87611681565b9150509a9950505050505050505050565b60008060009054906101000a900473ffffffffffffffffffffffffffffffffffffffff1673ffffffffffffffffffffffffffffffffffffffff163373ffffffffffffffffffffffffffffffffffffffff16141515610e0857600080fd5b610e10611490565b8211151515610e1e57600080fd5b6004548211151515610e2f57600080fd5b816004600082825403925050819055506000809054906101000a900473ffffffffffffffffffffffffffffffffffffffff1673ffffffffffffffffffffffffffffffffffffffff166108fc839081150290604051600060405180830381858888f19350505050158015610ea6573d6000803e3d6000fd5b507f7a15bc2f609c71257969c65784b9081adec0a55c3f6a0715f496e1e66d3b8ee0346040518082815260200191505060405180910390a160019050919050565b60006002308787878787600160008e73ffffffffffffffffffffffffffffffffffffffff1673ffffffffffffffffffffffffffffffffffffffff16815260200190815260200160002060008d6002811115610f3e57fe5b60ff1660ff16815260200190815260200160002060000154604051808873ffffffffffffffffffffffffffffffffffffffff1673ffffffffffffffffffffffffffffffffffffffff166c010000000000000000000000000281526014018773ffffffffffffffffffffffffffffffffffffffff1673ffffffffffffffffffffffffffffffffffffffff166c01000000000000000000000000028152601401866002811115610fe857fe5b60ff167f010000000000000000000000000000000000000000000000000000000000000002815260010185815260200184815260200183151515157f01000000000000000000000000000000000000000000000000000000000000000281526001018281526020019750505050505050506020604051808303816000865af1158015611078573d6000803e3d6000fd5b5050506040513d602081101561108d57600080fd5b8101908080519060200190929190505050905095945050505050565b6000806110b88c8c8c86610a9a565b15156110c357600080fd5b6110cf8c8c8c86610cce565b90506110de8c828b8b8b610b5e565b15156110e957600080fd5b6111176000809054906101000a900473ffffffffffffffffffffffffffffffffffffffff1682888888610b5e565b151561112257600080fd5b6111308c60028d8d87611681565b9150509a9950505050505050505050565b60045481565b6000816000809054906101000a900473ffffffffffffffffffffffffffffffffffffffff1673ffffffffffffffffffffffffffffffffffffffff163373ffffffffffffffffffffffffffffffffffffffff1614806111d057508073ffffffffffffffffffffffffffffffffffffffff163373ffffffffffffffffffffffffffffffffffffffff16145b15156111db57600080fd5b6111e6836001611236565b15156111f157600080fd5b6111fa836117f1565b915050919050565b600061121285600186868661139e565b9050949350505050565b600061122c856001868686610ee7565b9050949350505050565b60004262015180600160008673ffffffffffffffffffffffffffffffffffffffff1673ffffffffffffffffffffffffffffffffffffffff168152602001908152602001600020600085600281111561128a57fe5b60ff1660ff16815260200190815260200160002060040154011115905092915050565b60008060006112bd846002611878565b9150600160008573ffffffffffffffffffffffffffffffffffffffff1673ffffffffffffffffffffffffffffffffffffffff168152602001908152602001600020600060028081111561130c57fe5b60ff1660ff168152602001908152602001600020600101549050611331846002611986565b151561133c57600080fd5b8373ffffffffffffffffffffffffffffffffffffffff166108fc839081150290604051600060405180830381858888f19350505050158015611382573d6000803e3d6000fd5b5080600360008282540392505081905550600192505050919050565b60006113a8611a6d565b600160008873ffffffffffffffffffffffffffffffffffffffff1673ffffffffffffffffffffffffffffffffffffffff16815260200190815260200160002060008760028111156113f557fe5b60ff1660ff16815260200190815260200160002060a06040519081016040529081600082015481526020016001820154815260200160028201548152602001600382015481526020016004820154815250509050600081600001511415151561145d57600080fd5b8381602001511015151561147057600080fd5b84816060015110151561148257600080fd5b600191505095945050505050565b60006003543073ffffffffffffffffffffffffffffffffffffffff163103905090565b600080600160008673ffffffffffffffffffffffffffffffffffffffff1673ffffffffffffffffffffffffffffffffffffffff168152602001908152602001600020600085600281111561150357fe5b60ff1660ff1681526020019081526020016000206000015414151561152757600080fd5b60008211151561153657600080fd5b60008473ffffffffffffffffffffffffffffffffffffffff161415151561155c57600080fd5b60a060405190810160405280428152602001838152602001600081526020016000815260200142815250600160008673ffffffffffffffffffffffffffffffffffffffff1673ffffffffffffffffffffffffffffffffffffffff16815260200190815260200160002060008560028111156115d357fe5b60ff1660ff168152602001908152602001600020600082015181600001556020820151816001015560408201518160020155606082015181600301556080820151816004015590505082600281111561162857fe5b8473ffffffffffffffffffffffffffffffffffffffff167f207159d5ea68f53226e9955c8a59191f75c3c9bc71a5693663321a5f1cc78cf8846040518082815260200191505060405180910390a3600190509392505050565b600080600160008873ffffffffffffffffffffffffffffffffffffffff1673ffffffffffffffffffffffffffffffffffffffff16815260200190815260200160002060008760028111156116d157fe5b60ff1660ff16815260200190815260200160002090508481600301819055508381600201819055504281600401819055508215611775576001600281111561171557fe5b86600281111561172157fe5b141561174057611730876117f1565b151561173b57600080fd5b611774565b60028081111561174c57fe5b86600281111561175857fe5b141561177357611767876112ad565b151561177257600080fd5b5b5b5b85600281111561178157fe5b8773ffffffffffffffffffffffffffffffffffffffff167f13431d82baf01244aa52ecbf7c8c570e51785ef2a33ff9a25c84f64e0fdc84ac8787876040518084815260200183815260200182151515158152602001935050505060405180910390a3600191505095945050505050565b6000806117ff836001611878565b905061180c836001611986565b151561181757600080fd5b806002600082825403925050819055508273ffffffffffffffffffffffffffffffffffffffff166108fc829081150290604051600060405180830381858888f1935050505015801561186d573d6000803e3d6000fd5b506001915050919050565b6000611882611a6d565b600160008573ffffffffffffffffffffffffffffffffffffffff1673ffffffffffffffffffffffffffffffffffffffff16815260200190815260200160002060008460028111156118cf57fe5b60ff1660ff16815260200190815260200160002060a060405190810160405290816000820154815260200160018201548152602001600282015481526020016003820154815260200160048201548152505090506001600281111561193057fe5b83600281111561193c57fe5b1415611954578060400151816020015103915061197f565b60028081111561196057fe5b83600281111561196c57fe5b141561197e578060400151915061197f565b5b5092915050565b6000600160008473ffffffffffffffffffffffffffffffffffffffff1673ffffffffffffffffffffffffffffffffffffffff16815260200190815260200160002060008360028111156119d557fe5b60ff1660ff16815260200190815260200160002060008082016000905560018201600090556002820160009055600382016000905560048201600090555050816002811115611a2057fe5b8373ffffffffffffffffffffffffffffffffffffffff167f770342ee36990141b5b1f4b3b41a184d7968647ac7f0dbfd2d86d566c468027d60405160405180910390a36001905092915050565b60a060405190810160405280600081526020016000815260200160008152602001600081526020016000815250905600a165627a7a72305820c52fe0da0e2ef88466e9e2d8894cc337a4b03d95107ced3ad4e4dc2deb7571680029",
  "source": "pragma solidity ^0.4.16;\r\n\r\nimport \"./MultiPaymentChannel.sol\";\r\n\r\ncontract MasterchainMultiPaymentChannel is MultiPaymentChannel {\r\n\r\n    function _signatureCorrect (\r\n        address _wallet,\r\n        bytes32 _h, uint8 _v, bytes32 _r, bytes32 _s\r\n    ) public pure returns (bool)\r\n    {\r\n        return _wallet == ecrecover(sha256(\"\\x19Signed Message:\\n32\", _h), _v, _r, _s);\r\n    }\r\n\r\n}\r\n",
  "sourcePath": "D:\\Work\\Fintech\\fastchain\\contracts\\contracts\\MasterchainMultiPaymentChannel.sol",
  "compiler": {
    "name": "solc",
    "version": "0.4.24+commit.e67f0147.Emscripten.clang"
  },
  "schemaVersion": "2.0.1",
  "updatedAt": "2018-09-30T18:13:24.536Z"
}