{
  "contractName": "MasterchainMultiPaymentChannelHashlocks",
  "abi": [
    {
      "constant": true,
      "inputs": [],
      "name": "holdTime",
      "outputs": [
        {
          "name": "",
          "type": "uint256"
        }
      ],
      "payable": false,
      "stateMutability": "view",
      "type": "function"
    },
    {
      "constant": true,
      "inputs": [
        {
          "name": "",
          "type": "address"
        },
        {
          "name": "",
          "type": "uint8"
        }
      ],
      "name": "channels",
      "outputs": [
        {
          "name": "created",
          "type": "uint256"
        },
        {
          "name": "deposited",
          "type": "uint256"
        },
        {
          "name": "spent",
          "type": "uint256"
        },
        {
          "name": "sequenceNumber",
          "type": "uint256"
        },
        {
          "name": "lastUpdate",
          "type": "uint256"
        }
      ],
      "payable": false,
      "stateMutability": "view",
      "type": "function"
    },
    {
      "constant": false,
      "inputs": [
        {
          "name": "_merchant",
          "type": "address"
        }
      ],
      "name": "closeMerchantChannel",
      "outputs": [
        {
          "name": "",
          "type": "bool"
        }
      ],
      "payable": false,
      "stateMutability": "nonpayable",
      "type": "function"
    },
    {
      "constant": true,
      "inputs": [
        {
          "name": "_counterpart",
          "type": "address"
        },
        {
          "name": "_type",
          "type": "uint8"
        },
        {
          "name": "_sequenceNumber",
          "type": "uint256"
        },
        {
          "name": "_balanceShift",
          "type": "uint256"
        },
        {
          "name": "_close",
          "type": "bool"
        },
        {
          "name": "_hashlock",
          "type": "bytes32"
        }
      ],
      "name": "_utHashlock",
      "outputs": [
        {
          "name": "",
          "type": "bytes32"
        }
      ],
      "payable": false,
      "stateMutability": "view",
      "type": "function"
    },
    {
      "constant": false,
      "inputs": [],
      "name": "processingDeposit",
      "outputs": [
        {
          "name": "",
          "type": "bool"
        }
      ],
      "payable": true,
      "stateMutability": "payable",
      "type": "function"
    },
    {
      "constant": true,
      "inputs": [
        {
          "name": "_merchant",
          "type": "address"
        },
        {
          "name": "_sequenceNumber",
          "type": "uint256"
        },
        {
          "name": "_balanceShift",
          "type": "uint256"
        },
        {
          "name": "_close",
          "type": "bool"
        }
      ],
      "name": "validMerchantUT",
      "outputs": [
        {
          "name": "",
          "type": "bool"
        }
      ],
      "payable": false,
      "stateMutability": "view",
      "type": "function"
    },
    {
      "constant": false,
      "inputs": [
        {
          "name": "_merchant",
          "type": "address"
        },
        {
          "name": "_reserve",
          "type": "uint256"
        }
      ],
      "name": "newMerchant",
      "outputs": [
        {
          "name": "",
          "type": "bool"
        }
      ],
      "payable": false,
      "stateMutability": "nonpayable",
      "type": "function"
    },
    {
      "constant": true,
      "inputs": [],
      "name": "totalCustomersFunds",
      "outputs": [
        {
          "name": "",
          "type": "uint256"
        }
      ],
      "payable": false,
      "stateMutability": "view",
      "type": "function"
    },
    {
      "constant": true,
      "inputs": [
        {
          "name": "_wallet",
          "type": "address"
        },
        {
          "name": "_h",
          "type": "bytes32"
        },
        {
          "name": "_v",
          "type": "uint8"
        },
        {
          "name": "_r",
          "type": "bytes32"
        },
        {
          "name": "_s",
          "type": "bytes32"
        }
      ],
      "name": "_signatureCorrect",
      "outputs": [
        {
          "name": "",
          "type": "bool"
        }
      ],
      "payable": false,
      "stateMutability": "pure",
      "type": "function"
    },
    {
      "constant": false,
      "inputs": [],
      "name": "newCustomer",
      "outputs": [
        {
          "name": "",
          "type": "bool"
        }
      ],
      "payable": true,
      "stateMutability": "payable",
      "type": "function"
    },
    {
      "constant": true,
      "inputs": [
        {
          "name": "_hashlockPlain",
          "type": "bytes32"
        }
      ],
      "name": "hashSHA256",
      "outputs": [
        {
          "name": "",
          "type": "bytes32"
        }
      ],
      "payable": false,
      "stateMutability": "pure",
      "type": "function"
    },
    {
      "constant": true,
      "inputs": [
        {
          "name": "_merchant",
          "type": "address"
        },
        {
          "name": "_sequenceNumber",
          "type": "uint256"
        },
        {
          "name": "_balanceShift",
          "type": "uint256"
        },
        {
          "name": "_close",
          "type": "bool"
        }
      ],
      "name": "merchantUT",
      "outputs": [
        {
          "name": "",
          "type": "bytes32"
        }
      ],
      "payable": false,
      "stateMutability": "view",
      "type": "function"
    },
    {
      "constant": true,
      "inputs": [],
      "name": "totalMerchantFunds",
      "outputs": [
        {
          "name": "",
          "type": "uint256"
        }
      ],
      "payable": false,
      "stateMutability": "view",
      "type": "function"
    },
    {
      "constant": true,
      "inputs": [],
      "name": "owner",
      "outputs": [
        {
          "name": "",
          "type": "address"
        }
      ],
      "payable": false,
      "stateMutability": "view",
      "type": "function"
    },
    {
      "constant": false,
      "inputs": [
        {
          "name": "_merchant",
          "type": "address"
        },
        {
          "name": "_sequenceNumber",
          "type": "uint256"
        },
        {
          "name": "_balanceShift",
          "type": "uint256"
        },
        {
          "name": "_vA",
          "type": "uint8"
        },
        {
          "name": "_rA",
          "type": "bytes32"
        },
        {
          "name": "_sA",
          "type": "bytes32"
        },
        {
          "name": "_vB",
          "type": "uint8"
        },
        {
          "name": "_rB",
          "type": "bytes32"
        },
        {
          "name": "_sB",
          "type": "bytes32"
        },
        {
          "name": "_close",
          "type": "bool"
        },
        {
          "name": "_hashlockPlain",
          "type": "bytes32"
        }
      ],
      "name": "publishMerchantUTHashlock",
      "outputs": [
        {
          "name": "",
          "type": "bool"
        }
      ],
      "payable": false,
      "stateMutability": "nonpayable",
      "type": "function"
    },
    {
      "constant": true,
      "inputs": [
        {
          "name": "_customer",
          "type": "address"
        },
        {
          "name": "_sequenceNumber",
          "type": "uint256"
        },
        {
          "name": "_balanceShift",
          "type": "uint256"
        },
        {
          "name": "_close",
          "type": "bool"
        },
        {
          "name": "_hashlock",
          "type": "bytes32"
        }
      ],
      "name": "customerUTHashlock",
      "outputs": [
        {
          "name": "",
          "type": "bytes32"
        }
      ],
      "payable": false,
      "stateMutability": "view",
      "type": "function"
    },
    {
      "constant": false,
      "inputs": [
        {
          "name": "_customer",
          "type": "address"
        },
        {
          "name": "_sequenceNumber",
          "type": "uint256"
        },
        {
          "name": "_balanceShift",
          "type": "uint256"
        },
        {
          "name": "_vA",
          "type": "uint8"
        },
        {
          "name": "_rA",
          "type": "bytes32"
        },
        {
          "name": "_sA",
          "type": "bytes32"
        },
        {
          "name": "_vB",
          "type": "uint8"
        },
        {
          "name": "_rB",
          "type": "bytes32"
        },
        {
          "name": "_sB",
          "type": "bytes32"
        },
        {
          "name": "_close",
          "type": "bool"
        }
      ],
      "name": "publishCustomerUT",
      "outputs": [
        {
          "name": "",
          "type": "bool"
        }
      ],
      "payable": false,
      "stateMutability": "nonpayable",
      "type": "function"
    },
    {
      "constant": false,
      "inputs": [
        {
          "name": "_withdrawAmount",
          "type": "uint256"
        }
      ],
      "name": "processingWithdraw",
      "outputs": [
        {
          "name": "",
          "type": "bool"
        }
      ],
      "payable": false,
      "stateMutability": "nonpayable",
      "type": "function"
    },
    {
      "constant": true,
      "inputs": [
        {
          "name": "_counterpart",
          "type": "address"
        },
        {
          "name": "_type",
          "type": "uint8"
        },
        {
          "name": "_sequenceNumber",
          "type": "uint256"
        },
        {
          "name": "_balanceShift",
          "type": "uint256"
        },
        {
          "name": "_close",
          "type": "bool"
        }
      ],
      "name": "_ut",
      "outputs": [
        {
          "name": "",
          "type": "bytes32"
        }
      ],
      "payable": false,
      "stateMutability": "view",
      "type": "function"
    },
    {
      "constant": false,
      "inputs": [
        {
          "name": "_merchant",
          "type": "address"
        },
        {
          "name": "_sequenceNumber",
          "type": "uint256"
        },
        {
          "name": "_balanceShift",
          "type": "uint256"
        },
        {
          "name": "_vA",
          "type": "uint8"
        },
        {
          "name": "_rA",
          "type": "bytes32"
        },
        {
          "name": "_sA",
          "type": "bytes32"
        },
        {
          "name": "_vB",
          "type": "uint8"
        },
        {
          "name": "_rB",
          "type": "bytes32"
        },
        {
          "name": "_sB",
          "type": "bytes32"
        },
        {
          "name": "_close",
          "type": "bool"
        }
      ],
      "name": "publishMerchantUT",
      "outputs": [
        {
          "name": "",
          "type": "bool"
        }
      ],
      "payable": false,
      "stateMutability": "nonpayable",
      "type": "function"
    },
    {
      "constant": true,
      "inputs": [
        {
          "name": "_merchant",
          "type": "address"
        },
        {
          "name": "_sequenceNumber",
          "type": "uint256"
        },
        {
          "name": "_balanceShift",
          "type": "uint256"
        },
        {
          "name": "_close",
          "type": "bool"
        },
        {
          "name": "_hashlock",
          "type": "bytes32"
        }
      ],
      "name": "merchantUTHashlock",
      "outputs": [
        {
          "name": "",
          "type": "bytes32"
        }
      ],
      "payable": false,
      "stateMutability": "view",
      "type": "function"
    },
    {
      "constant": true,
      "inputs": [],
      "name": "totalProcessingFunds",
      "outputs": [
        {
          "name": "",
          "type": "uint256"
        }
      ],
      "payable": false,
      "stateMutability": "view",
      "type": "function"
    },
    {
      "constant": false,
      "inputs": [
        {
          "name": "_customer",
          "type": "address"
        }
      ],
      "name": "closeCustomerChannel",
      "outputs": [
        {
          "name": "",
          "type": "bool"
        }
      ],
      "payable": false,
      "stateMutability": "nonpayable",
      "type": "function"
    },
    {
      "constant": false,
      "inputs": [
        {
          "name": "_customer",
          "type": "address"
        },
        {
          "name": "_sequenceNumber",
          "type": "uint256"
        },
        {
          "name": "_balanceShift",
          "type": "uint256"
        },
        {
          "name": "_vA",
          "type": "uint8"
        },
        {
          "name": "_rA",
          "type": "bytes32"
        },
        {
          "name": "_sA",
          "type": "bytes32"
        },
        {
          "name": "_vB",
          "type": "uint8"
        },
        {
          "name": "_rB",
          "type": "bytes32"
        },
        {
          "name": "_sB",
          "type": "bytes32"
        },
        {
          "name": "_close",
          "type": "bool"
        },
        {
          "name": "_hashlockPlain",
          "type": "bytes32"
        }
      ],
      "name": "publishCustomerUTHashlock",
      "outputs": [
        {
          "name": "",
          "type": "bool"
        }
      ],
      "payable": false,
      "stateMutability": "nonpayable",
      "type": "function"
    },
    {
      "constant": true,
      "inputs": [
        {
          "name": "_customer",
          "type": "address"
        },
        {
          "name": "_sequenceNumber",
          "type": "uint256"
        },
        {
          "name": "_balanceShift",
          "type": "uint256"
        },
        {
          "name": "_close",
          "type": "bool"
        }
      ],
      "name": "validCustomerUT",
      "outputs": [
        {
          "name": "",
          "type": "bool"
        }
      ],
      "payable": false,
      "stateMutability": "view",
      "type": "function"
    },
    {
      "constant": true,
      "inputs": [
        {
          "name": "_customer",
          "type": "address"
        },
        {
          "name": "_sequenceNumber",
          "type": "uint256"
        },
        {
          "name": "_balanceShift",
          "type": "uint256"
        },
        {
          "name": "_close",
          "type": "bool"
        }
      ],
      "name": "customerUT",
      "outputs": [
        {
          "name": "",
          "type": "bytes32"
        }
      ],
      "payable": false,
      "stateMutability": "view",
      "type": "function"
    },
    {
      "anonymous": false,
      "inputs": [],
      "name": "Deployed",
      "type": "event"
    },
    {
      "anonymous": false,
      "inputs": [
        {
          "indexed": false,
          "name": "amount",
          "type": "uint256"
        }
      ],
      "name": "ProcessingDeposit",
      "type": "event"
    },
    {
      "anonymous": false,
      "inputs": [
        {
          "indexed": false,
          "name": "amount",
          "type": "uint256"
        }
      ],
      "name": "ProcessingWithdraw",
      "type": "event"
    },
    {
      "anonymous": false,
      "inputs": [
        {
          "indexed": true,
          "name": "counterpart",
          "type": "address"
        },
        {
          "indexed": true,
          "name": "channelType",
          "type": "uint256"
        },
        {
          "indexed": false,
          "name": "volume",
          "type": "uint256"
        }
      ],
      "name": "ChannelCreated",
      "type": "event"
    },
    {
      "anonymous": false,
      "inputs": [
        {
          "indexed": true,
          "name": "counterpart",
          "type": "address"
        },
        {
          "indexed": true,
          "name": "channelType",
          "type": "uint256"
        },
        {
          "indexed": false,
          "name": "sequenceNumber",
          "type": "uint256"
        },
        {
          "indexed": false,
          "name": "spent",
          "type": "uint256"
        },
        {
          "indexed": false,
          "name": "close",
          "type": "bool"
        }
      ],
      "name": "ChannelUpdated",
      "type": "event"
    },
    {
      "anonymous": false,
      "inputs": [
        {
          "indexed": true,
          "name": "counterpart",
          "type": "address"
        },
        {
          "indexed": true,
          "name": "channelType",
          "type": "uint256"
        }
      ],
      "name": "ChannelClosed",
      "type": "event"
    }
  ],
  "bytecode": "0x6080604052336000806101000a81548173ffffffffffffffffffffffffffffffffffffffff021916908373ffffffffffffffffffffffffffffffffffffffff160217905550346004600082825401925050819055507f3fad920548ed9f22deb8333b4cc1e4f9bc36666a1c2aa30ad59a0a3bb9dcbb9260405160405180910390a161232b8061008f6000396000f300608060405260043610610154576000357c0100000000000000000000000000000000000000000000000000000000900463ffffffff168063097d5155146101595780630cc95c4a146101845780631dda645e146102045780631fd163da1461025f5780633c0b24b7146102f95780633f77f4601461031b5780634c91b2ed146103965780635a53c866146103fb5780635f75ed161461042657806370e0178a146104b85780637a90a7da146104da57806383738481146105275780638d1eb9af146105a65780638da5cb5b146105d1578063adda0d9414610628578063b8ba483b14610703578063bce1df4d14610790578063c4b12efb1461085d578063c714c000146108a2578063caecaf1c1461092e578063cb5ec504146109fb578063e243cd9e14610a88578063e5f363f914610ab3578063ec363a8314610b0e578063fbb1a52814610be9578063fcf2b41114610c64575b600080fd5b34801561016557600080fd5b5061016e610ce3565b6040518082815260200191505060405180910390f35b34801561019057600080fd5b506101d2600480360381019080803573ffffffffffffffffffffffffffffffffffffffff169060200190929190803560ff169060200190929190505050610cea565b604051808681526020018581526020018481526020018381526020018281526020019550505050505060405180910390f35b34801561021057600080fd5b50610245600480360381019080803573ffffffffffffffffffffffffffffffffffffffff169060200190929190505050610d2d565b604051808215151515815260200191505060405180910390f35b34801561026b57600080fd5b506102db600480360381019080803573ffffffffffffffffffffffffffffffffffffffff169060200190929190803560ff16906020019092919080359060200190929190803590602001909291908035151590602001909291908035600019169060200190929190505050610de8565b60405180826000191660001916815260200191505060405180910390f35b610301610fbb565b604051808215151515815260200191505060405180910390f35b34801561032757600080fd5b5061037c600480360381019080803573ffffffffffffffffffffffffffffffffffffffff1690602001909291908035906020019092919080359060200190929190803515159060200190929190505050611066565b604051808215151515815260200191505060405180910390f35b3480156103a257600080fd5b506103e1600480360381019080803573ffffffffffffffffffffffffffffffffffffffff16906020019092919080359060200190929190505050611080565b604051808215151515815260200191505060405180910390f35b34801561040757600080fd5b50610410611124565b6040518082815260200191505060405180910390f35b34801561043257600080fd5b5061049e600480360381019080803573ffffffffffffffffffffffffffffffffffffffff1690602001909291908035600019169060200190929190803560ff1690602001909291908035600019169060200190929190803560001916906020019092919050505061112a565b604051808215151515815260200191505060405180910390f35b6104c061126a565b604051808215151515815260200191505060405180910390f35b3480156104e657600080fd5b50610509600480360381019080803560001916906020019092919050505061129a565b60405180826000191660001916815260200191505060405180910390f35b34801561053357600080fd5b50610588600480360381019080803573ffffffffffffffffffffffffffffffffffffffff1690602001909291908035906020019092919080359060200190929190803515159060200190929190505050611300565b60405180826000191660001916815260200191505060405180910390f35b3480156105b257600080fd5b506105bb61131a565b6040518082815260200191505060405180910390f35b3480156105dd57600080fd5b506105e6611320565b604051808273ffffffffffffffffffffffffffffffffffffffff1673ffffffffffffffffffffffffffffffffffffffff16815260200191505060405180910390f35b34801561063457600080fd5b506106e9600480360381019080803573ffffffffffffffffffffffffffffffffffffffff1690602001909291908035906020019092919080359060200190929190803560ff16906020019092919080356000191690602001909291908035600019169060200190929190803560ff169060200190929190803560001916906020019092919080356000191690602001909291908035151590602001909291908035600019169060200190929190505050611345565b604051808215151515815260200191505060405180910390f35b34801561070f57600080fd5b50610772600480360381019080803573ffffffffffffffffffffffffffffffffffffffff16906020019092919080359060200190929190803590602001909291908035151590602001909291908035600019169060200190929190505050611441565b60405180826000191660001916815260200191505060405180910390f35b34801561079c57600080fd5b50610843600480360381019080803573ffffffffffffffffffffffffffffffffffffffff1690602001909291908035906020019092919080359060200190929190803560ff16906020019092919080356000191690602001909291908035600019169060200190929190803560ff1690602001909291908035600019169060200190929190803560001916906020019092919080351515906020019092919050505061145d565b604051808215151515815260200191505060405180910390f35b34801561086957600080fd5b50610888600480360381019080803590602001909291905050506114f5565b604051808215151515815260200191505060405180910390f35b3480156108ae57600080fd5b50610910600480360381019080803573ffffffffffffffffffffffffffffffffffffffff169060200190929190803560ff1690602001909291908035906020019092919080359060200190929190803515159060200190929190505050611631565b60405180826000191660001916815260200191505060405180910390f35b34801561093a57600080fd5b506109e1600480360381019080803573ffffffffffffffffffffffffffffffffffffffff1690602001909291908035906020019092919080359060200190929190803560ff16906020019092919080356000191690602001909291908035600019169060200190929190803560ff169060200190929190803560001916906020019092919080356000191690602001909291908035151590602001909291905050506117f3565b604051808215151515815260200191505060405180910390f35b348015610a0757600080fd5b50610a6a600480360381019080803573ffffffffffffffffffffffffffffffffffffffff1690602001909291908035906020019092919080359060200190929190803515159060200190929190803560001916906020019092919050505061188b565b60405180826000191660001916815260200191505060405180910390f35b348015610a9457600080fd5b50610a9d6118a7565b6040518082815260200191505060405180910390f35b348015610abf57600080fd5b50610af4600480360381019080803573ffffffffffffffffffffffffffffffffffffffff1690602001909291905050506118ad565b604051808215151515815260200191505060405180910390f35b348015610b1a57600080fd5b50610bcf600480360381019080803573ffffffffffffffffffffffffffffffffffffffff1690602001909291908035906020019092919080359060200190929190803560ff16906020019092919080356000191690602001909291908035600019169060200190929190803560ff169060200190929190803560001916906020019092919080356000191690602001909291908035151590602001909291908035600019169060200190929190505050611968565b604051808215151515815260200191505060405180910390f35b348015610bf557600080fd5b50610c4a600480360381019080803573ffffffffffffffffffffffffffffffffffffffff1690602001909291908035906020019092919080359060200190929190803515159060200190929190505050611a64565b604051808215151515815260200191505060405180910390f35b348015610c7057600080fd5b50610cc5600480360381019080803573ffffffffffffffffffffffffffffffffffffffff1690602001909291908035906020019092919080359060200190929190803515159060200190929190505050611a7e565b60405180826000191660001916815260200191505060405180910390f35b6201518081565b6001602052816000526040600020602052806000526040600020600091509150508060000154908060010154908060020154908060030154908060040154905085565b6000816000809054906101000a900473ffffffffffffffffffffffffffffffffffffffff1673ffffffffffffffffffffffffffffffffffffffff163373ffffffffffffffffffffffffffffffffffffffff161480610db657508073ffffffffffffffffffffffffffffffffffffffff163373ffffffffffffffffffffffffffffffffffffffff16145b1515610dc157600080fd5b610dcc836002611a98565b1515610dd757600080fd5b610de083611b0f565b915050919050565b600060023088888888600160008e73ffffffffffffffffffffffffffffffffffffffff1673ffffffffffffffffffffffffffffffffffffffff16815260200190815260200160002060008d6002811115610e3e57fe5b60ff1660ff168152602001908152602001600020600001548989604051808973ffffffffffffffffffffffffffffffffffffffff1673ffffffffffffffffffffffffffffffffffffffff166c010000000000000000000000000281526014018873ffffffffffffffffffffffffffffffffffffffff1673ffffffffffffffffffffffffffffffffffffffff166c01000000000000000000000000028152601401876002811115610eea57fe5b60ff167f010000000000000000000000000000000000000000000000000000000000000002815260010186815260200185815260200184815260200183151515157f01000000000000000000000000000000000000000000000000000000000000000281526001018260001916600019168152602001985050505050505050506020604051808303816000865af1158015610f89573d6000803e3d6000fd5b5050506040513d6020811015610f9e57600080fd5b810190808051906020019092919050505090509695505050505050565b60008060009054906101000a900473ffffffffffffffffffffffffffffffffffffffff1673ffffffffffffffffffffffffffffffffffffffff163373ffffffffffffffffffffffffffffffffffffffff1614151561101857600080fd5b346004600082825401925050819055507fce0e6b00dfd1166fdcef786e4b04aa52980dd6beab7895ba9be7710d52ab576f346040518082815260200191505060405180910390a16001905090565b6000611076856002868686611c00565b9050949350505050565b60008060009054906101000a900473ffffffffffffffffffffffffffffffffffffffff1673ffffffffffffffffffffffffffffffffffffffff163373ffffffffffffffffffffffffffffffffffffffff161415156110dd57600080fd5b6110e5611cf2565b82111515156110f357600080fd5b6110ff83600284611d15565b151561110a57600080fd5b816003600082825401925050819055506001905092915050565b60025481565b6000600160028660405180807f195369676e6564204d6573736167653a0a33320000000000000000000000000081525060130182600019166000191681526020019150506020604051808303816000865af115801561118d573d6000803e3d6000fd5b5050506040513d60208110156111a257600080fd5b8101908080519060200190929190505050858585604051600081526020016040526040518085600019166000191681526020018460ff1660ff1681526020018360001916600019168152602001826000191660001916815260200194505050505060206040516020810390808403906000865af1158015611227573d6000803e3d6000fd5b5050506020604051035173ffffffffffffffffffffffffffffffffffffffff168673ffffffffffffffffffffffffffffffffffffffff1614905095945050505050565b600061127833600134611d15565b151561128357600080fd5b346002600082825401925050819055506001905090565b60006002826040518082600019166000191681526020019150506020604051808303816000865af11580156112d3573d6000803e3d6000fd5b5050506040513d60208110156112e857600080fd5b81019080805190602001909291905050509050919050565b6000611310856002868686611631565b9050949350505050565b60035481565b6000809054906101000a900473ffffffffffffffffffffffffffffffffffffffff1681565b60008060006002846040518082600019166000191681526020019150506020604051808303816000865af1158015611381573d6000803e3d6000fd5b5050506040513d602081101561139657600080fd5b810190808051906020019092919050505091506113b58e8e8e88611066565b15156113c057600080fd5b6113cd8e8e8e888661188b565b90506113dc8e828d8d8d61112a565b15156113e757600080fd5b6114156000809054906101000a900473ffffffffffffffffffffffffffffffffffffffff16828a8a8a61112a565b151561142057600080fd5b61142e8e60028f8f89611ee3565b925050509b9a5050505050505050505050565b600061145286600187878787610de8565b905095945050505050565b60008061146c8c8c8c86611a64565b151561147757600080fd5b6114838c8c8c86611a7e565b90506114928c828b8b8b61112a565b151561149d57600080fd5b6114cb6000809054906101000a900473ffffffffffffffffffffffffffffffffffffffff168288888861112a565b15156114d657600080fd5b6114e48c60018d8d87611ee3565b9150509a9950505050505050505050565b60008060009054906101000a900473ffffffffffffffffffffffffffffffffffffffff1673ffffffffffffffffffffffffffffffffffffffff163373ffffffffffffffffffffffffffffffffffffffff1614151561155257600080fd5b61155a611cf2565b821115151561156857600080fd5b600454821115151561157957600080fd5b816004600082825403925050819055506000809054906101000a900473ffffffffffffffffffffffffffffffffffffffff1673ffffffffffffffffffffffffffffffffffffffff166108fc839081150290604051600060405180830381858888f193505050501580156115f0573d6000803e3d6000fd5b507f7a15bc2f609c71257969c65784b9081adec0a55c3f6a0715f496e1e66d3b8ee0346040518082815260200191505060405180910390a160019050919050565b60006002308787878787600160008e73ffffffffffffffffffffffffffffffffffffffff1673ffffffffffffffffffffffffffffffffffffffff16815260200190815260200160002060008d600281111561168857fe5b60ff1660ff16815260200190815260200160002060000154604051808873ffffffffffffffffffffffffffffffffffffffff1673ffffffffffffffffffffffffffffffffffffffff166c010000000000000000000000000281526014018773ffffffffffffffffffffffffffffffffffffffff1673ffffffffffffffffffffffffffffffffffffffff166c0100000000000000000000000002815260140186600281111561173257fe5b60ff167f010000000000000000000000000000000000000000000000000000000000000002815260010185815260200184815260200183151515157f01000000000000000000000000000000000000000000000000000000000000000281526001018281526020019750505050505050506020604051808303816000865af11580156117c2573d6000803e3d6000fd5b5050506040513d60208110156117d757600080fd5b8101908080519060200190929190505050905095945050505050565b6000806118028c8c8c86611066565b151561180d57600080fd5b6118198c8c8c86611300565b90506118288c828b8b8b61112a565b151561183357600080fd5b6118616000809054906101000a900473ffffffffffffffffffffffffffffffffffffffff168288888861112a565b151561186c57600080fd5b61187a8c60028d8d87611ee3565b9150509a9950505050505050505050565b600061189c86600287878787610de8565b905095945050505050565b60045481565b6000816000809054906101000a900473ffffffffffffffffffffffffffffffffffffffff1673ffffffffffffffffffffffffffffffffffffffff163373ffffffffffffffffffffffffffffffffffffffff16148061193657508073ffffffffffffffffffffffffffffffffffffffff163373ffffffffffffffffffffffffffffffffffffffff16145b151561194157600080fd5b61194c836001611a98565b151561195757600080fd5b61196083612053565b915050919050565b60008060006002846040518082600019166000191681526020019150506020604051808303816000865af11580156119a4573d6000803e3d6000fd5b5050506040513d60208110156119b957600080fd5b810190808051906020019092919050505091506119d88e8e8e88611a64565b15156119e357600080fd5b6119f08e8e8e8886611441565b90506119ff8e828d8d8d61112a565b1515611a0a57600080fd5b611a386000809054906101000a900473ffffffffffffffffffffffffffffffffffffffff16828a8a8a61112a565b1515611a4357600080fd5b611a518e60018f8f89611ee3565b925050509b9a5050505050505050505050565b6000611a74856001868686611c00565b9050949350505050565b6000611a8e856001868686611631565b9050949350505050565b60004262015180600160008673ffffffffffffffffffffffffffffffffffffffff1673ffffffffffffffffffffffffffffffffffffffff1681526020019081526020016000206000856002811115611aec57fe5b60ff1660ff16815260200190815260200160002060040154011115905092915050565b6000806000611b1f8460026120da565b9150600160008573ffffffffffffffffffffffffffffffffffffffff1673ffffffffffffffffffffffffffffffffffffffff1681526020019081526020016000206000600280811115611b6e57fe5b60ff1660ff168152602001908152602001600020600101549050611b938460026121e8565b1515611b9e57600080fd5b8373ffffffffffffffffffffffffffffffffffffffff166108fc839081150290604051600060405180830381858888f19350505050158015611be4573d6000803e3d6000fd5b5080600360008282540392505081905550600192505050919050565b6000611c0a6122cf565b600160008873ffffffffffffffffffffffffffffffffffffffff1673ffffffffffffffffffffffffffffffffffffffff1681526020019081526020016000206000876002811115611c5757fe5b60ff1660ff16815260200190815260200160002060a060405190810160405290816000820154815260200160018201548152602001600282015481526020016003820154815260200160048201548152505090506000816000015114151515611cbf57600080fd5b83816020015110151515611cd257600080fd5b848160600151101515611ce457600080fd5b600191505095945050505050565b60006003543073ffffffffffffffffffffffffffffffffffffffff163103905090565b600080600160008673ffffffffffffffffffffffffffffffffffffffff1673ffffffffffffffffffffffffffffffffffffffff1681526020019081526020016000206000856002811115611d6557fe5b60ff1660ff16815260200190815260200160002060000154141515611d8957600080fd5b600082111515611d9857600080fd5b60008473ffffffffffffffffffffffffffffffffffffffff1614151515611dbe57600080fd5b60a060405190810160405280428152602001838152602001600081526020016000815260200142815250600160008673ffffffffffffffffffffffffffffffffffffffff1673ffffffffffffffffffffffffffffffffffffffff1681526020019081526020016000206000856002811115611e3557fe5b60ff1660ff1681526020019081526020016000206000820151816000015560208201518160010155604082015181600201556060820151816003015560808201518160040155905050826002811115611e8a57fe5b8473ffffffffffffffffffffffffffffffffffffffff167f207159d5ea68f53226e9955c8a59191f75c3c9bc71a5693663321a5f1cc78cf8846040518082815260200191505060405180910390a3600190509392505050565b600080600160008873ffffffffffffffffffffffffffffffffffffffff1673ffffffffffffffffffffffffffffffffffffffff1681526020019081526020016000206000876002811115611f3357fe5b60ff1660ff16815260200190815260200160002090508481600301819055508381600201819055504281600401819055508215611fd75760016002811115611f7757fe5b866002811115611f8357fe5b1415611fa257611f9287612053565b1515611f9d57600080fd5b611fd6565b600280811115611fae57fe5b866002811115611fba57fe5b1415611fd557611fc987611b0f565b1515611fd457600080fd5b5b5b5b856002811115611fe357fe5b8773ffffffffffffffffffffffffffffffffffffffff167f13431d82baf01244aa52ecbf7c8c570e51785ef2a33ff9a25c84f64e0fdc84ac8787876040518084815260200183815260200182151515158152602001935050505060405180910390a3600191505095945050505050565b6000806120618360016120da565b905061206e8360016121e8565b151561207957600080fd5b806002600082825403925050819055508273ffffffffffffffffffffffffffffffffffffffff166108fc829081150290604051600060405180830381858888f193505050501580156120cf573d6000803e3d6000fd5b506001915050919050565b60006120e46122cf565b600160008573ffffffffffffffffffffffffffffffffffffffff1673ffffffffffffffffffffffffffffffffffffffff168152602001908152602001600020600084600281111561213157fe5b60ff1660ff16815260200190815260200160002060a060405190810160405290816000820154815260200160018201548152602001600282015481526020016003820154815260200160048201548152505090506001600281111561219257fe5b83600281111561219e57fe5b14156121b657806040015181602001510391506121e1565b6002808111156121c257fe5b8360028111156121ce57fe5b14156121e057806040015191506121e1565b5b5092915050565b6000600160008473ffffffffffffffffffffffffffffffffffffffff1673ffffffffffffffffffffffffffffffffffffffff168152602001908152602001600020600083600281111561223757fe5b60ff1660ff1681526020019081526020016000206000808201600090556001820160009055600282016000905560038201600090556004820160009055505081600281111561228257fe5b8373ffffffffffffffffffffffffffffffffffffffff167f770342ee36990141b5b1f4b3b41a184d7968647ac7f0dbfd2d86d566c468027d60405160405180910390a36001905092915050565b60a060405190810160405280600081526020016000815260200160008152602001600081526020016000815250905600a165627a7a72305820da8ad45b73864f6b86d26a6bc87ab6d8c5cffd8005949e29b66e4ff7b11767400029",
  "source": "pragma solidity ^0.4.16;\r\n\r\nimport \"./MasterchainMultiPaymentChannel.sol\";\r\nimport \"./MultiPaymentChannelHashlocks.sol\";\r\n\r\ncontract MasterchainMultiPaymentChannelHashlocks is\r\n    MasterchainMultiPaymentChannel,\r\n    MultiPaymentChannelHashlocks {\r\n\r\n\r\n}\r\n",
  "sourcePath": "D:\\Work\\Fintech\\fastchain\\contracts\\contracts\\MasterchainMultiPaymentChannelHashlocks.sol",
  "compiler": {
    "name": "solc",
    "version": "0.4.24+commit.e67f0147.Emscripten.clang"
  },
  "schemaVersion": "2.0.1",
  "updatedAt": "2018-09-30T18:13:24.537Z"
}