{
  "contractName": "MultiPaymentChannelHashlocks",
  "abi": [
    {
      "constant": true,
      "inputs": [],
      "name": "holdTime",
      "outputs": [
        {
          "name": "",
          "type": "uint256"
        }
      ],
      "payable": false,
      "stateMutability": "view",
      "type": "function"
    },
    {
      "constant": true,
      "inputs": [
        {
          "name": "",
          "type": "address"
        },
        {
          "name": "",
          "type": "uint8"
        }
      ],
      "name": "channels",
      "outputs": [
        {
          "name": "created",
          "type": "uint256"
        },
        {
          "name": "deposited",
          "type": "uint256"
        },
        {
          "name": "spent",
          "type": "uint256"
        },
        {
          "name": "sequenceNumber",
          "type": "uint256"
        },
        {
          "name": "lastUpdate",
          "type": "uint256"
        }
      ],
      "payable": false,
      "stateMutability": "view",
      "type": "function"
    },
    {
      "constant": false,
      "inputs": [
        {
          "name": "_merchant",
          "type": "address"
        }
      ],
      "name": "closeMerchantChannel",
      "outputs": [
        {
          "name": "",
          "type": "bool"
        }
      ],
      "payable": false,
      "stateMutability": "nonpayable",
      "type": "function"
    },
    {
      "constant": false,
      "inputs": [],
      "name": "processingDeposit",
      "outputs": [
        {
          "name": "",
          "type": "bool"
        }
      ],
      "payable": true,
      "stateMutability": "payable",
      "type": "function"
    },
    {
      "constant": true,
      "inputs": [
        {
          "name": "_merchant",
          "type": "address"
        },
        {
          "name": "_sequenceNumber",
          "type": "uint256"
        },
        {
          "name": "_balanceShift",
          "type": "uint256"
        },
        {
          "name": "_close",
          "type": "bool"
        }
      ],
      "name": "validMerchantUT",
      "outputs": [
        {
          "name": "",
          "type": "bool"
        }
      ],
      "payable": false,
      "stateMutability": "view",
      "type": "function"
    },
    {
      "constant": false,
      "inputs": [
        {
          "name": "_merchant",
          "type": "address"
        },
        {
          "name": "_reserve",
          "type": "uint256"
        }
      ],
      "name": "newMerchant",
      "outputs": [
        {
          "name": "",
          "type": "bool"
        }
      ],
      "payable": false,
      "stateMutability": "nonpayable",
      "type": "function"
    },
    {
      "constant": true,
      "inputs": [],
      "name": "totalCustomersFunds",
      "outputs": [
        {
          "name": "",
          "type": "uint256"
        }
      ],
      "payable": false,
      "stateMutability": "view",
      "type": "function"
    },
    {
      "constant": true,
      "inputs": [
        {
          "name": "_wallet",
          "type": "address"
        },
        {
          "name": "_h",
          "type": "bytes32"
        },
        {
          "name": "_v",
          "type": "uint8"
        },
        {
          "name": "_r",
          "type": "bytes32"
        },
        {
          "name": "_s",
          "type": "bytes32"
        }
      ],
      "name": "_signatureCorrect",
      "outputs": [
        {
          "name": "",
          "type": "bool"
        }
      ],
      "payable": false,
      "stateMutability": "pure",
      "type": "function"
    },
    {
      "constant": false,
      "inputs": [],
      "name": "newCustomer",
      "outputs": [
        {
          "name": "",
          "type": "bool"
        }
      ],
      "payable": true,
      "stateMutability": "payable",
      "type": "function"
    },
    {
      "constant": true,
      "inputs": [
        {
          "name": "_merchant",
          "type": "address"
        },
        {
          "name": "_sequenceNumber",
          "type": "uint256"
        },
        {
          "name": "_balanceShift",
          "type": "uint256"
        },
        {
          "name": "_close",
          "type": "bool"
        }
      ],
      "name": "merchantUT",
      "outputs": [
        {
          "name": "",
          "type": "bytes32"
        }
      ],
      "payable": false,
      "stateMutability": "view",
      "type": "function"
    },
    {
      "constant": true,
      "inputs": [],
      "name": "totalMerchantFunds",
      "outputs": [
        {
          "name": "",
          "type": "uint256"
        }
      ],
      "payable": false,
      "stateMutability": "view",
      "type": "function"
    },
    {
      "constant": true,
      "inputs": [],
      "name": "owner",
      "outputs": [
        {
          "name": "",
          "type": "address"
        }
      ],
      "payable": false,
      "stateMutability": "view",
      "type": "function"
    },
    {
      "constant": false,
      "inputs": [
        {
          "name": "_customer",
          "type": "address"
        },
        {
          "name": "_sequenceNumber",
          "type": "uint256"
        },
        {
          "name": "_balanceShift",
          "type": "uint256"
        },
        {
          "name": "_vA",
          "type": "uint8"
        },
        {
          "name": "_rA",
          "type": "bytes32"
        },
        {
          "name": "_sA",
          "type": "bytes32"
        },
        {
          "name": "_vB",
          "type": "uint8"
        },
        {
          "name": "_rB",
          "type": "bytes32"
        },
        {
          "name": "_sB",
          "type": "bytes32"
        },
        {
          "name": "_close",
          "type": "bool"
        }
      ],
      "name": "publishCustomerUT",
      "outputs": [
        {
          "name": "",
          "type": "bool"
        }
      ],
      "payable": false,
      "stateMutability": "nonpayable",
      "type": "function"
    },
    {
      "constant": false,
      "inputs": [
        {
          "name": "_withdrawAmount",
          "type": "uint256"
        }
      ],
      "name": "processingWithdraw",
      "outputs": [
        {
          "name": "",
          "type": "bool"
        }
      ],
      "payable": false,
      "stateMutability": "nonpayable",
      "type": "function"
    },
    {
      "constant": true,
      "inputs": [
        {
          "name": "_counterpart",
          "type": "address"
        },
        {
          "name": "_type",
          "type": "uint8"
        },
        {
          "name": "_sequenceNumber",
          "type": "uint256"
        },
        {
          "name": "_balanceShift",
          "type": "uint256"
        },
        {
          "name": "_close",
          "type": "bool"
        }
      ],
      "name": "_ut",
      "outputs": [
        {
          "name": "",
          "type": "bytes32"
        }
      ],
      "payable": false,
      "stateMutability": "view",
      "type": "function"
    },
    {
      "constant": false,
      "inputs": [
        {
          "name": "_merchant",
          "type": "address"
        },
        {
          "name": "_sequenceNumber",
          "type": "uint256"
        },
        {
          "name": "_balanceShift",
          "type": "uint256"
        },
        {
          "name": "_vA",
          "type": "uint8"
        },
        {
          "name": "_rA",
          "type": "bytes32"
        },
        {
          "name": "_sA",
          "type": "bytes32"
        },
        {
          "name": "_vB",
          "type": "uint8"
        },
        {
          "name": "_rB",
          "type": "bytes32"
        },
        {
          "name": "_sB",
          "type": "bytes32"
        },
        {
          "name": "_close",
          "type": "bool"
        }
      ],
      "name": "publishMerchantUT",
      "outputs": [
        {
          "name": "",
          "type": "bool"
        }
      ],
      "payable": false,
      "stateMutability": "nonpayable",
      "type": "function"
    },
    {
      "constant": true,
      "inputs": [],
      "name": "totalProcessingFunds",
      "outputs": [
        {
          "name": "",
          "type": "uint256"
        }
      ],
      "payable": false,
      "stateMutability": "view",
      "type": "function"
    },
    {
      "constant": false,
      "inputs": [
        {
          "name": "_customer",
          "type": "address"
        }
      ],
      "name": "closeCustomerChannel",
      "outputs": [
        {
          "name": "",
          "type": "bool"
        }
      ],
      "payable": false,
      "stateMutability": "nonpayable",
      "type": "function"
    },
    {
      "constant": true,
      "inputs": [
        {
          "name": "_customer",
          "type": "address"
        },
        {
          "name": "_sequenceNumber",
          "type": "uint256"
        },
        {
          "name": "_balanceShift",
          "type": "uint256"
        },
        {
          "name": "_close",
          "type": "bool"
        }
      ],
      "name": "validCustomerUT",
      "outputs": [
        {
          "name": "",
          "type": "bool"
        }
      ],
      "payable": false,
      "stateMutability": "view",
      "type": "function"
    },
    {
      "constant": true,
      "inputs": [
        {
          "name": "_customer",
          "type": "address"
        },
        {
          "name": "_sequenceNumber",
          "type": "uint256"
        },
        {
          "name": "_balanceShift",
          "type": "uint256"
        },
        {
          "name": "_close",
          "type": "bool"
        }
      ],
      "name": "customerUT",
      "outputs": [
        {
          "name": "",
          "type": "bytes32"
        }
      ],
      "payable": false,
      "stateMutability": "view",
      "type": "function"
    },
    {
      "anonymous": false,
      "inputs": [],
      "name": "Deployed",
      "type": "event"
    },
    {
      "anonymous": false,
      "inputs": [
        {
          "indexed": false,
          "name": "amount",
          "type": "uint256"
        }
      ],
      "name": "ProcessingDeposit",
      "type": "event"
    },
    {
      "anonymous": false,
      "inputs": [
        {
          "indexed": false,
          "name": "amount",
          "type": "uint256"
        }
      ],
      "name": "ProcessingWithdraw",
      "type": "event"
    },
    {
      "anonymous": false,
      "inputs": [
        {
          "indexed": true,
          "name": "counterpart",
          "type": "address"
        },
        {
          "indexed": true,
          "name": "channelType",
          "type": "uint256"
        },
        {
          "indexed": false,
          "name": "volume",
          "type": "uint256"
        }
      ],
      "name": "ChannelCreated",
      "type": "event"
    },
    {
      "anonymous": false,
      "inputs": [
        {
          "indexed": true,
          "name": "counterpart",
          "type": "address"
        },
        {
          "indexed": true,
          "name": "channelType",
          "type": "uint256"
        },
        {
          "indexed": false,
          "name": "sequenceNumber",
          "type": "uint256"
        },
        {
          "indexed": false,
          "name": "spent",
          "type": "uint256"
        },
        {
          "indexed": false,
          "name": "close",
          "type": "bool"
        }
      ],
      "name": "ChannelUpdated",
      "type": "event"
    },
    {
      "anonymous": false,
      "inputs": [
        {
          "indexed": true,
          "name": "counterpart",
          "type": "address"
        },
        {
          "indexed": true,
          "name": "channelType",
          "type": "uint256"
        }
      ],
      "name": "ChannelClosed",
      "type": "event"
    },
    {
      "constant": true,
      "inputs": [
        {
          "name": "_customer",
          "type": "address"
        },
        {
          "name": "_sequenceNumber",
          "type": "uint256"
        },
        {
          "name": "_balanceShift",
          "type": "uint256"
        },
        {
          "name": "_close",
          "type": "bool"
        },
        {
          "name": "_hashlock",
          "type": "bytes32"
        }
      ],
      "name": "customerUTHashlock",
      "outputs": [
        {
          "name": "",
          "type": "bytes32"
        }
      ],
      "payable": false,
      "stateMutability": "view",
      "type": "function"
    },
    {
      "constant": false,
      "inputs": [
        {
          "name": "_customer",
          "type": "address"
        },
        {
          "name": "_sequenceNumber",
          "type": "uint256"
        },
        {
          "name": "_balanceShift",
          "type": "uint256"
        },
        {
          "name": "_vA",
          "type": "uint8"
        },
        {
          "name": "_rA",
          "type": "bytes32"
        },
        {
          "name": "_sA",
          "type": "bytes32"
        },
        {
          "name": "_vB",
          "type": "uint8"
        },
        {
          "name": "_rB",
          "type": "bytes32"
        },
        {
          "name": "_sB",
          "type": "bytes32"
        },
        {
          "name": "_close",
          "type": "bool"
        },
        {
          "name": "_hashlockPlain",
          "type": "bytes32"
        }
      ],
      "name": "publishCustomerUTHashlock",
      "outputs": [
        {
          "name": "",
          "type": "bool"
        }
      ],
      "payable": false,
      "stateMutability": "nonpayable",
      "type": "function"
    },
    {
      "constant": true,
      "inputs": [
        {
          "name": "_merchant",
          "type": "address"
        },
        {
          "name": "_sequenceNumber",
          "type": "uint256"
        },
        {
          "name": "_balanceShift",
          "type": "uint256"
        },
        {
          "name": "_close",
          "type": "bool"
        },
        {
          "name": "_hashlock",
          "type": "bytes32"
        }
      ],
      "name": "merchantUTHashlock",
      "outputs": [
        {
          "name": "",
          "type": "bytes32"
        }
      ],
      "payable": false,
      "stateMutability": "view",
      "type": "function"
    },
    {
      "constant": false,
      "inputs": [
        {
          "name": "_merchant",
          "type": "address"
        },
        {
          "name": "_sequenceNumber",
          "type": "uint256"
        },
        {
          "name": "_balanceShift",
          "type": "uint256"
        },
        {
          "name": "_vA",
          "type": "uint8"
        },
        {
          "name": "_rA",
          "type": "bytes32"
        },
        {
          "name": "_sA",
          "type": "bytes32"
        },
        {
          "name": "_vB",
          "type": "uint8"
        },
        {
          "name": "_rB",
          "type": "bytes32"
        },
        {
          "name": "_sB",
          "type": "bytes32"
        },
        {
          "name": "_close",
          "type": "bool"
        },
        {
          "name": "_hashlockPlain",
          "type": "bytes32"
        }
      ],
      "name": "publishMerchantUTHashlock",
      "outputs": [
        {
          "name": "",
          "type": "bool"
        }
      ],
      "payable": false,
      "stateMutability": "nonpayable",
      "type": "function"
    },
    {
      "constant": true,
      "inputs": [
        {
          "name": "_counterpart",
          "type": "address"
        },
        {
          "name": "_type",
          "type": "uint8"
        },
        {
          "name": "_sequenceNumber",
          "type": "uint256"
        },
        {
          "name": "_balanceShift",
          "type": "uint256"
        },
        {
          "name": "_close",
          "type": "bool"
        },
        {
          "name": "_hashlock",
          "type": "bytes32"
        }
      ],
      "name": "_utHashlock",
      "outputs": [
        {
          "name": "",
          "type": "bytes32"
        }
      ],
      "payable": false,
      "stateMutability": "view",
      "type": "function"
    },
    {
      "constant": true,
      "inputs": [
        {
          "name": "_hashlockPlain",
          "type": "bytes32"
        }
      ],
      "name": "hashSHA256",
      "outputs": [
        {
          "name": "",
          "type": "bytes32"
        }
      ],
      "payable": false,
      "stateMutability": "pure",
      "type": "function"
    }
  ],
  "bytecode": "0x6080604052336000806101000a81548173ffffffffffffffffffffffffffffffffffffffff021916908373ffffffffffffffffffffffffffffffffffffffff160217905550346004600082825401925050819055507f3fad920548ed9f22deb8333b4cc1e4f9bc36666a1c2aa30ad59a0a3bb9dcbb9260405160405180910390a16122ec8061008f6000396000f300608060405260043610610154576000357c0100000000000000000000000000000000000000000000000000000000900463ffffffff168063097d5155146101595780630cc95c4a146101845780631dda645e146102045780631fd163da1461025f5780633c0b24b7146102f95780633f77f4601461031b5780634c91b2ed146103965780635a53c866146103fb5780635f75ed161461042657806370e0178a146104b85780637a90a7da146104da57806383738481146105275780638d1eb9af146105a65780638da5cb5b146105d1578063adda0d9414610628578063b8ba483b14610703578063bce1df4d14610790578063c4b12efb1461085d578063c714c000146108a2578063caecaf1c1461092e578063cb5ec504146109fb578063e243cd9e14610a88578063e5f363f914610ab3578063ec363a8314610b0e578063fbb1a52814610be9578063fcf2b41114610c64575b600080fd5b34801561016557600080fd5b5061016e610ce3565b6040518082815260200191505060405180910390f35b34801561019057600080fd5b506101d2600480360381019080803573ffffffffffffffffffffffffffffffffffffffff169060200190929190803560ff169060200190929190505050610cea565b604051808681526020018581526020018481526020018381526020018281526020019550505050505060405180910390f35b34801561021057600080fd5b50610245600480360381019080803573ffffffffffffffffffffffffffffffffffffffff169060200190929190505050610d2d565b604051808215151515815260200191505060405180910390f35b34801561026b57600080fd5b506102db600480360381019080803573ffffffffffffffffffffffffffffffffffffffff169060200190929190803560ff16906020019092919080359060200190929190803590602001909291908035151590602001909291908035600019169060200190929190505050610de8565b60405180826000191660001916815260200191505060405180910390f35b610301610fbb565b604051808215151515815260200191505060405180910390f35b34801561032757600080fd5b5061037c600480360381019080803573ffffffffffffffffffffffffffffffffffffffff1690602001909291908035906020019092919080359060200190929190803515159060200190929190505050611066565b604051808215151515815260200191505060405180910390f35b3480156103a257600080fd5b506103e1600480360381019080803573ffffffffffffffffffffffffffffffffffffffff16906020019092919080359060200190929190505050611080565b604051808215151515815260200191505060405180910390f35b34801561040757600080fd5b50610410611124565b6040518082815260200191505060405180910390f35b34801561043257600080fd5b5061049e600480360381019080803573ffffffffffffffffffffffffffffffffffffffff1690602001909291908035600019169060200190929190803560ff1690602001909291908035600019169060200190929190803560001916906020019092919050505061112a565b604051808215151515815260200191505060405180910390f35b6104c061122b565b604051808215151515815260200191505060405180910390f35b3480156104e657600080fd5b50610509600480360381019080803560001916906020019092919050505061125b565b60405180826000191660001916815260200191505060405180910390f35b34801561053357600080fd5b50610588600480360381019080803573ffffffffffffffffffffffffffffffffffffffff16906020019092919080359060200190929190803590602001909291908035151590602001909291905050506112c1565b60405180826000191660001916815260200191505060405180910390f35b3480156105b257600080fd5b506105bb6112db565b6040518082815260200191505060405180910390f35b3480156105dd57600080fd5b506105e66112e1565b604051808273ffffffffffffffffffffffffffffffffffffffff1673ffffffffffffffffffffffffffffffffffffffff16815260200191505060405180910390f35b34801561063457600080fd5b506106e9600480360381019080803573ffffffffffffffffffffffffffffffffffffffff1690602001909291908035906020019092919080359060200190929190803560ff16906020019092919080356000191690602001909291908035600019169060200190929190803560ff169060200190929190803560001916906020019092919080356000191690602001909291908035151590602001909291908035600019169060200190929190505050611306565b604051808215151515815260200191505060405180910390f35b34801561070f57600080fd5b50610772600480360381019080803573ffffffffffffffffffffffffffffffffffffffff16906020019092919080359060200190929190803590602001909291908035151590602001909291908035600019169060200190929190505050611402565b60405180826000191660001916815260200191505060405180910390f35b34801561079c57600080fd5b50610843600480360381019080803573ffffffffffffffffffffffffffffffffffffffff1690602001909291908035906020019092919080359060200190929190803560ff16906020019092919080356000191690602001909291908035600019169060200190929190803560ff1690602001909291908035600019169060200190929190803560001916906020019092919080351515906020019092919050505061141e565b604051808215151515815260200191505060405180910390f35b34801561086957600080fd5b50610888600480360381019080803590602001909291905050506114b6565b604051808215151515815260200191505060405180910390f35b3480156108ae57600080fd5b50610910600480360381019080803573ffffffffffffffffffffffffffffffffffffffff169060200190929190803560ff16906020019092919080359060200190929190803590602001909291908035151590602001909291905050506115f2565b60405180826000191660001916815260200191505060405180910390f35b34801561093a57600080fd5b506109e1600480360381019080803573ffffffffffffffffffffffffffffffffffffffff1690602001909291908035906020019092919080359060200190929190803560ff16906020019092919080356000191690602001909291908035600019169060200190929190803560ff169060200190929190803560001916906020019092919080356000191690602001909291908035151590602001909291905050506117b4565b604051808215151515815260200191505060405180910390f35b348015610a0757600080fd5b50610a6a600480360381019080803573ffffffffffffffffffffffffffffffffffffffff1690602001909291908035906020019092919080359060200190929190803515159060200190929190803560001916906020019092919050505061184c565b60405180826000191660001916815260200191505060405180910390f35b348015610a9457600080fd5b50610a9d611868565b6040518082815260200191505060405180910390f35b348015610abf57600080fd5b50610af4600480360381019080803573ffffffffffffffffffffffffffffffffffffffff16906020019092919050505061186e565b604051808215151515815260200191505060405180910390f35b348015610b1a57600080fd5b50610bcf600480360381019080803573ffffffffffffffffffffffffffffffffffffffff1690602001909291908035906020019092919080359060200190929190803560ff16906020019092919080356000191690602001909291908035600019169060200190929190803560ff169060200190929190803560001916906020019092919080356000191690602001909291908035151590602001909291908035600019169060200190929190505050611929565b604051808215151515815260200191505060405180910390f35b348015610bf557600080fd5b50610c4a600480360381019080803573ffffffffffffffffffffffffffffffffffffffff1690602001909291908035906020019092919080359060200190929190803515159060200190929190505050611a25565b604051808215151515815260200191505060405180910390f35b348015610c7057600080fd5b50610cc5600480360381019080803573ffffffffffffffffffffffffffffffffffffffff1690602001909291908035906020019092919080359060200190929190803515159060200190929190505050611a3f565b60405180826000191660001916815260200191505060405180910390f35b6201518081565b6001602052816000526040600020602052806000526040600020600091509150508060000154908060010154908060020154908060030154908060040154905085565b6000816000809054906101000a900473ffffffffffffffffffffffffffffffffffffffff1673ffffffffffffffffffffffffffffffffffffffff163373ffffffffffffffffffffffffffffffffffffffff161480610db657508073ffffffffffffffffffffffffffffffffffffffff163373ffffffffffffffffffffffffffffffffffffffff16145b1515610dc157600080fd5b610dcc836002611a59565b1515610dd757600080fd5b610de083611ad0565b915050919050565b600060023088888888600160008e73ffffffffffffffffffffffffffffffffffffffff1673ffffffffffffffffffffffffffffffffffffffff16815260200190815260200160002060008d6002811115610e3e57fe5b60ff1660ff168152602001908152602001600020600001548989604051808973ffffffffffffffffffffffffffffffffffffffff1673ffffffffffffffffffffffffffffffffffffffff166c010000000000000000000000000281526014018873ffffffffffffffffffffffffffffffffffffffff1673ffffffffffffffffffffffffffffffffffffffff166c01000000000000000000000000028152601401876002811115610eea57fe5b60ff167f010000000000000000000000000000000000000000000000000000000000000002815260010186815260200185815260200184815260200183151515157f01000000000000000000000000000000000000000000000000000000000000000281526001018260001916600019168152602001985050505050505050506020604051808303816000865af1158015610f89573d6000803e3d6000fd5b5050506040513d6020811015610f9e57600080fd5b810190808051906020019092919050505090509695505050505050565b60008060009054906101000a900473ffffffffffffffffffffffffffffffffffffffff1673ffffffffffffffffffffffffffffffffffffffff163373ffffffffffffffffffffffffffffffffffffffff1614151561101857600080fd5b346004600082825401925050819055507fce0e6b00dfd1166fdcef786e4b04aa52980dd6beab7895ba9be7710d52ab576f346040518082815260200191505060405180910390a16001905090565b6000611076856002868686611bc1565b9050949350505050565b60008060009054906101000a900473ffffffffffffffffffffffffffffffffffffffff1673ffffffffffffffffffffffffffffffffffffffff163373ffffffffffffffffffffffffffffffffffffffff161415156110dd57600080fd5b6110e5611cb3565b82111515156110f357600080fd5b6110ff83600284611cd6565b151561110a57600080fd5b816003600082825401925050819055506001905092915050565b60025481565b600060018560405180807f19457468657265756d205369676e6564204d6573736167653a0a333200000000815250601c0182600019166000191681526020019150506040518091039020858585604051600081526020016040526040518085600019166000191681526020018460ff1660ff1681526020018360001916600019168152602001826000191660001916815260200194505050505060206040516020810390808403906000865af11580156111e8573d6000803e3d6000fd5b5050506020604051035173ffffffffffffffffffffffffffffffffffffffff168673ffffffffffffffffffffffffffffffffffffffff1614905095945050505050565b600061123933600134611cd6565b151561124457600080fd5b346002600082825401925050819055506001905090565b60006002826040518082600019166000191681526020019150506020604051808303816000865af1158015611294573d6000803e3d6000fd5b5050506040513d60208110156112a957600080fd5b81019080805190602001909291905050509050919050565b60006112d18560028686866115f2565b9050949350505050565b60035481565b6000809054906101000a900473ffffffffffffffffffffffffffffffffffffffff1681565b60008060006002846040518082600019166000191681526020019150506020604051808303816000865af1158015611342573d6000803e3d6000fd5b5050506040513d602081101561135757600080fd5b810190808051906020019092919050505091506113768e8e8e88611066565b151561138157600080fd5b61138e8e8e8e888661184c565b905061139d8e828d8d8d61112a565b15156113a857600080fd5b6113d66000809054906101000a900473ffffffffffffffffffffffffffffffffffffffff16828a8a8a61112a565b15156113e157600080fd5b6113ef8e60028f8f89611ea4565b925050509b9a5050505050505050505050565b600061141386600187878787610de8565b905095945050505050565b60008061142d8c8c8c86611a25565b151561143857600080fd5b6114448c8c8c86611a3f565b90506114538c828b8b8b61112a565b151561145e57600080fd5b61148c6000809054906101000a900473ffffffffffffffffffffffffffffffffffffffff168288888861112a565b151561149757600080fd5b6114a58c60018d8d87611ea4565b9150509a9950505050505050505050565b60008060009054906101000a900473ffffffffffffffffffffffffffffffffffffffff1673ffffffffffffffffffffffffffffffffffffffff163373ffffffffffffffffffffffffffffffffffffffff1614151561151357600080fd5b61151b611cb3565b821115151561152957600080fd5b600454821115151561153a57600080fd5b816004600082825403925050819055506000809054906101000a900473ffffffffffffffffffffffffffffffffffffffff1673ffffffffffffffffffffffffffffffffffffffff166108fc839081150290604051600060405180830381858888f193505050501580156115b1573d6000803e3d6000fd5b507f7a15bc2f609c71257969c65784b9081adec0a55c3f6a0715f496e1e66d3b8ee0346040518082815260200191505060405180910390a160019050919050565b60006002308787878787600160008e73ffffffffffffffffffffffffffffffffffffffff1673ffffffffffffffffffffffffffffffffffffffff16815260200190815260200160002060008d600281111561164957fe5b60ff1660ff16815260200190815260200160002060000154604051808873ffffffffffffffffffffffffffffffffffffffff1673ffffffffffffffffffffffffffffffffffffffff166c010000000000000000000000000281526014018773ffffffffffffffffffffffffffffffffffffffff1673ffffffffffffffffffffffffffffffffffffffff166c010000000000000000000000000281526014018660028111156116f357fe5b60ff167f010000000000000000000000000000000000000000000000000000000000000002815260010185815260200184815260200183151515157f01000000000000000000000000000000000000000000000000000000000000000281526001018281526020019750505050505050506020604051808303816000865af1158015611783573d6000803e3d6000fd5b5050506040513d602081101561179857600080fd5b8101908080519060200190929190505050905095945050505050565b6000806117c38c8c8c86611066565b15156117ce57600080fd5b6117da8c8c8c866112c1565b90506117e98c828b8b8b61112a565b15156117f457600080fd5b6118226000809054906101000a900473ffffffffffffffffffffffffffffffffffffffff168288888861112a565b151561182d57600080fd5b61183b8c60028d8d87611ea4565b9150509a9950505050505050505050565b600061185d86600287878787610de8565b905095945050505050565b60045481565b6000816000809054906101000a900473ffffffffffffffffffffffffffffffffffffffff1673ffffffffffffffffffffffffffffffffffffffff163373ffffffffffffffffffffffffffffffffffffffff1614806118f757508073ffffffffffffffffffffffffffffffffffffffff163373ffffffffffffffffffffffffffffffffffffffff16145b151561190257600080fd5b61190d836001611a59565b151561191857600080fd5b61192183612014565b915050919050565b60008060006002846040518082600019166000191681526020019150506020604051808303816000865af1158015611965573d6000803e3d6000fd5b5050506040513d602081101561197a57600080fd5b810190808051906020019092919050505091506119998e8e8e88611a25565b15156119a457600080fd5b6119b18e8e8e8886611402565b90506119c08e828d8d8d61112a565b15156119cb57600080fd5b6119f96000809054906101000a900473ffffffffffffffffffffffffffffffffffffffff16828a8a8a61112a565b1515611a0457600080fd5b611a128e60018f8f89611ea4565b925050509b9a5050505050505050505050565b6000611a35856001868686611bc1565b9050949350505050565b6000611a4f8560018686866115f2565b9050949350505050565b60004262015180600160008673ffffffffffffffffffffffffffffffffffffffff1673ffffffffffffffffffffffffffffffffffffffff1681526020019081526020016000206000856002811115611aad57fe5b60ff1660ff16815260200190815260200160002060040154011115905092915050565b6000806000611ae084600261209b565b9150600160008573ffffffffffffffffffffffffffffffffffffffff1673ffffffffffffffffffffffffffffffffffffffff1681526020019081526020016000206000600280811115611b2f57fe5b60ff1660ff168152602001908152602001600020600101549050611b548460026121a9565b1515611b5f57600080fd5b8373ffffffffffffffffffffffffffffffffffffffff166108fc839081150290604051600060405180830381858888f19350505050158015611ba5573d6000803e3d6000fd5b5080600360008282540392505081905550600192505050919050565b6000611bcb612290565b600160008873ffffffffffffffffffffffffffffffffffffffff1673ffffffffffffffffffffffffffffffffffffffff1681526020019081526020016000206000876002811115611c1857fe5b60ff1660ff16815260200190815260200160002060a060405190810160405290816000820154815260200160018201548152602001600282015481526020016003820154815260200160048201548152505090506000816000015114151515611c8057600080fd5b83816020015110151515611c9357600080fd5b848160600151101515611ca557600080fd5b600191505095945050505050565b60006003543073ffffffffffffffffffffffffffffffffffffffff163103905090565b600080600160008673ffffffffffffffffffffffffffffffffffffffff1673ffffffffffffffffffffffffffffffffffffffff1681526020019081526020016000206000856002811115611d2657fe5b60ff1660ff16815260200190815260200160002060000154141515611d4a57600080fd5b600082111515611d5957600080fd5b60008473ffffffffffffffffffffffffffffffffffffffff1614151515611d7f57600080fd5b60a060405190810160405280428152602001838152602001600081526020016000815260200142815250600160008673ffffffffffffffffffffffffffffffffffffffff1673ffffffffffffffffffffffffffffffffffffffff1681526020019081526020016000206000856002811115611df657fe5b60ff1660ff1681526020019081526020016000206000820151816000015560208201518160010155604082015181600201556060820151816003015560808201518160040155905050826002811115611e4b57fe5b8473ffffffffffffffffffffffffffffffffffffffff167f207159d5ea68f53226e9955c8a59191f75c3c9bc71a5693663321a5f1cc78cf8846040518082815260200191505060405180910390a3600190509392505050565b600080600160008873ffffffffffffffffffffffffffffffffffffffff1673ffffffffffffffffffffffffffffffffffffffff1681526020019081526020016000206000876002811115611ef457fe5b60ff1660ff16815260200190815260200160002090508481600301819055508381600201819055504281600401819055508215611f985760016002811115611f3857fe5b866002811115611f4457fe5b1415611f6357611f5387612014565b1515611f5e57600080fd5b611f97565b600280811115611f6f57fe5b866002811115611f7b57fe5b1415611f9657611f8a87611ad0565b1515611f9557600080fd5b5b5b5b856002811115611fa457fe5b8773ffffffffffffffffffffffffffffffffffffffff167f13431d82baf01244aa52ecbf7c8c570e51785ef2a33ff9a25c84f64e0fdc84ac8787876040518084815260200183815260200182151515158152602001935050505060405180910390a3600191505095945050505050565b60008061202283600161209b565b905061202f8360016121a9565b151561203a57600080fd5b806002600082825403925050819055508273ffffffffffffffffffffffffffffffffffffffff166108fc829081150290604051600060405180830381858888f19350505050158015612090573d6000803e3d6000fd5b506001915050919050565b60006120a5612290565b600160008573ffffffffffffffffffffffffffffffffffffffff1673ffffffffffffffffffffffffffffffffffffffff16815260200190815260200160002060008460028111156120f257fe5b60ff1660ff16815260200190815260200160002060a060405190810160405290816000820154815260200160018201548152602001600282015481526020016003820154815260200160048201548152505090506001600281111561215357fe5b83600281111561215f57fe5b141561217757806040015181602001510391506121a2565b60028081111561218357fe5b83600281111561218f57fe5b14156121a157806040015191506121a2565b5b5092915050565b6000600160008473ffffffffffffffffffffffffffffffffffffffff1673ffffffffffffffffffffffffffffffffffffffff16815260200190815260200160002060008360028111156121f857fe5b60ff1660ff1681526020019081526020016000206000808201600090556001820160009055600282016000905560038201600090556004820160009055505081600281111561224357fe5b8373ffffffffffffffffffffffffffffffffffffffff167f770342ee36990141b5b1f4b3b41a184d7968647ac7f0dbfd2d86d566c468027d60405160405180910390a36001905092915050565b60a060405190810160405280600081526020016000815260200160008152602001600081526020016000815250905600a165627a7a72305820620adf103c7b350c335b9e54e194afe974216dd71428631823d1393adffa5c3a0029",
  "source": "pragma solidity ^0.4.16;\r\n\r\nimport \"./MultiPaymentChannel.sol\";\r\n\r\ncontract MultiPaymentChannelHashlocks is MultiPaymentChannel {\r\n\r\n\r\n    function customerUTHashlock (\r\n        address _customer,\r\n        uint256 _sequenceNumber,\r\n        uint256 _balanceShift,\r\n        bool _close,\r\n        bytes32 _hashlock\r\n    ) public view returns (bytes32)\r\n    {\r\n        return _utHashlock(_customer, ChannelType.CUSTOMER, _sequenceNumber, _balanceShift, _close, _hashlock);\r\n    }\r\n\r\n\r\n    function publishCustomerUTHashlock (\r\n        address _customer,\r\n        uint256 _sequenceNumber,\r\n        uint256 _balanceShift,\r\n        uint8 _vA, bytes32 _rA, bytes32 _sA, // customer\r\n        uint8 _vB, bytes32 _rB, bytes32 _sB,  // owner (processing)\r\n        bool _close,\r\n        bytes32 _hashlockPlain\r\n    ) public returns (bool) {\r\n        bytes32 _hashlock = sha256(_hashlockPlain);\r\n        require (validCustomerUT(_customer, _sequenceNumber, _balanceShift, _close));\r\n        bytes32 message = customerUTHashlock(_customer, _sequenceNumber, _balanceShift, _close, _hashlock);\r\n        require (_signatureCorrect(_customer, message, _vA, _rA, _sA));\r\n        require (_signatureCorrect(owner, message, _vB, _rB, _sB));\r\n        return _applyUpdateTransaction(_customer, ChannelType.CUSTOMER, _sequenceNumber, _balanceShift, _close);\r\n    }\r\n\r\n\r\n    function merchantUTHashlock (\r\n        address _merchant,\r\n        uint256 _sequenceNumber,\r\n        uint256 _balanceShift,\r\n        bool _close,\r\n        bytes32 _hashlock\r\n    ) public view returns (bytes32)\r\n    {\r\n        return _utHashlock(_merchant, ChannelType.MERCHANT, _sequenceNumber, _balanceShift, _close, _hashlock);\r\n    }\r\n\r\n\r\n    function publishMerchantUTHashlock (\r\n        address _merchant,\r\n        uint256 _sequenceNumber,\r\n        uint256 _balanceShift,\r\n        uint8 _vA, bytes32 _rA, bytes32 _sA, // merchant\r\n        uint8 _vB, bytes32 _rB, bytes32 _sB,  // owner (processing)\r\n        bool _close,\r\n        bytes32 _hashlockPlain\r\n    ) public returns (bool) {\r\n        bytes32 _hashlock = sha256(_hashlockPlain);\r\n        require (validMerchantUT(_merchant, _sequenceNumber, _balanceShift, _close));\r\n        bytes32 message = merchantUTHashlock(_merchant, _sequenceNumber, _balanceShift, _close, _hashlock);\r\n        require (_signatureCorrect(_merchant, message, _vA, _rA, _sA));\r\n        require (_signatureCorrect(owner, message, _vB, _rB, _sB));\r\n        return _applyUpdateTransaction(_merchant, ChannelType.MERCHANT, _sequenceNumber, _balanceShift, _close);\r\n    }\r\n\r\n\r\n    function _utHashlock (\r\n        address _counterpart,\r\n        ChannelType _type,\r\n        uint256 _sequenceNumber,\r\n        uint256 _balanceShift,\r\n        bool _close,\r\n        bytes32 _hashlock\r\n    ) public view returns (bytes32)\r\n    {\r\n        return sha256(\r\n            address(this),\r\n            _counterpart,\r\n            _type,\r\n            _sequenceNumber,\r\n            _balanceShift,\r\n            channels[_counterpart][uint8(_type)].created, // prevents reusing\r\n            _close,\r\n            _hashlock\r\n        );\r\n    }\r\n\r\n    function hashSHA256 (bytes32 _hashlockPlain) public pure returns (bytes32) {\r\n        return sha256(_hashlockPlain);\r\n    }\r\n\r\n}\r\n",
  "sourcePath": "D:\\Work\\Fintech\\fastchain\\contracts\\contracts\\MultiPaymentChannelHashlocks.sol",
  "compiler": {
    "name": "solc",
    "version": "0.4.24+commit.e67f0147.Emscripten.clang"
  },
  "schemaVersion": "2.0.1",
  "updatedAt": "2018-09-30T18:13:24.539Z"
}