{
  "contractName": "MultiPaymentChannel",
  "abi": [
    {
      "constant": true,
      "inputs": [],
      "name": "holdTime",
      "outputs": [
        {
          "name": "",
          "type": "uint256"
        }
      ],
      "payable": false,
      "stateMutability": "view",
      "type": "function"
    },
    {
      "constant": true,
      "inputs": [
        {
          "name": "",
          "type": "address"
        },
        {
          "name": "",
          "type": "uint8"
        }
      ],
      "name": "channels",
      "outputs": [
        {
          "name": "created",
          "type": "uint256"
        },
        {
          "name": "deposited",
          "type": "uint256"
        },
        {
          "name": "spent",
          "type": "uint256"
        },
        {
          "name": "sequenceNumber",
          "type": "uint256"
        },
        {
          "name": "lastUpdate",
          "type": "uint256"
        }
      ],
      "payable": false,
      "stateMutability": "view",
      "type": "function"
    },
    {
      "constant": true,
      "inputs": [],
      "name": "totalCustomersFunds",
      "outputs": [
        {
          "name": "",
          "type": "uint256"
        }
      ],
      "payable": false,
      "stateMutability": "view",
      "type": "function"
    },
    {
      "constant": true,
      "inputs": [],
      "name": "totalMerchantFunds",
      "outputs": [
        {
          "name": "",
          "type": "uint256"
        }
      ],
      "payable": false,
      "stateMutability": "view",
      "type": "function"
    },
    {
      "constant": true,
      "inputs": [],
      "name": "owner",
      "outputs": [
        {
          "name": "",
          "type": "address"
        }
      ],
      "payable": false,
      "stateMutability": "view",
      "type": "function"
    },
    {
      "constant": true,
      "inputs": [],
      "name": "totalProcessingFunds",
      "outputs": [
        {
          "name": "",
          "type": "uint256"
        }
      ],
      "payable": false,
      "stateMutability": "view",
      "type": "function"
    },
    {
      "inputs": [],
      "payable": true,
      "stateMutability": "payable",
      "type": "constructor"
    },
    {
      "anonymous": false,
      "inputs": [],
      "name": "Deployed",
      "type": "event"
    },
    {
      "anonymous": false,
      "inputs": [
        {
          "indexed": false,
          "name": "amount",
          "type": "uint256"
        }
      ],
      "name": "ProcessingDeposit",
      "type": "event"
    },
    {
      "anonymous": false,
      "inputs": [
        {
          "indexed": false,
          "name": "amount",
          "type": "uint256"
        }
      ],
      "name": "ProcessingWithdraw",
      "type": "event"
    },
    {
      "anonymous": false,
      "inputs": [
        {
          "indexed": true,
          "name": "counterpart",
          "type": "address"
        },
        {
          "indexed": true,
          "name": "channelType",
          "type": "uint256"
        },
        {
          "indexed": false,
          "name": "volume",
          "type": "uint256"
        }
      ],
      "name": "ChannelCreated",
      "type": "event"
    },
    {
      "anonymous": false,
      "inputs": [
        {
          "indexed": true,
          "name": "counterpart",
          "type": "address"
        },
        {
          "indexed": true,
          "name": "channelType",
          "type": "uint256"
        },
        {
          "indexed": false,
          "name": "sequenceNumber",
          "type": "uint256"
        },
        {
          "indexed": false,
          "name": "spent",
          "type": "uint256"
        },
        {
          "indexed": false,
          "name": "close",
          "type": "bool"
        }
      ],
      "name": "ChannelUpdated",
      "type": "event"
    },
    {
      "anonymous": false,
      "inputs": [
        {
          "indexed": true,
          "name": "counterpart",
          "type": "address"
        },
        {
          "indexed": true,
          "name": "channelType",
          "type": "uint256"
        }
      ],
      "name": "ChannelClosed",
      "type": "event"
    },
    {
      "constant": false,
      "inputs": [],
      "name": "processingDeposit",
      "outputs": [
        {
          "name": "",
          "type": "bool"
        }
      ],
      "payable": true,
      "stateMutability": "payable",
      "type": "function"
    },
    {
      "constant": false,
      "inputs": [
        {
          "name": "_withdrawAmount",
          "type": "uint256"
        }
      ],
      "name": "processingWithdraw",
      "outputs": [
        {
          "name": "",
          "type": "bool"
        }
      ],
      "payable": false,
      "stateMutability": "nonpayable",
      "type": "function"
    },
    {
      "constant": false,
      "inputs": [],
      "name": "newCustomer",
      "outputs": [
        {
          "name": "",
          "type": "bool"
        }
      ],
      "payable": true,
      "stateMutability": "payable",
      "type": "function"
    },
    {
      "constant": false,
      "inputs": [
        {
          "name": "_customer",
          "type": "address"
        }
      ],
      "name": "closeCustomerChannel",
      "outputs": [
        {
          "name": "",
          "type": "bool"
        }
      ],
      "payable": false,
      "stateMutability": "nonpayable",
      "type": "function"
    },
    {
      "constant": true,
      "inputs": [
        {
          "name": "_customer",
          "type": "address"
        },
        {
          "name": "_sequenceNumber",
          "type": "uint256"
        },
        {
          "name": "_balanceShift",
          "type": "uint256"
        },
        {
          "name": "_close",
          "type": "bool"
        }
      ],
      "name": "customerUT",
      "outputs": [
        {
          "name": "",
          "type": "bytes32"
        }
      ],
      "payable": false,
      "stateMutability": "view",
      "type": "function"
    },
    {
      "constant": true,
      "inputs": [
        {
          "name": "_customer",
          "type": "address"
        },
        {
          "name": "_sequenceNumber",
          "type": "uint256"
        },
        {
          "name": "_balanceShift",
          "type": "uint256"
        },
        {
          "name": "_close",
          "type": "bool"
        }
      ],
      "name": "validCustomerUT",
      "outputs": [
        {
          "name": "",
          "type": "bool"
        }
      ],
      "payable": false,
      "stateMutability": "view",
      "type": "function"
    },
    {
      "constant": false,
      "inputs": [
        {
          "name": "_customer",
          "type": "address"
        },
        {
          "name": "_sequenceNumber",
          "type": "uint256"
        },
        {
          "name": "_balanceShift",
          "type": "uint256"
        },
        {
          "name": "_vA",
          "type": "uint8"
        },
        {
          "name": "_rA",
          "type": "bytes32"
        },
        {
          "name": "_sA",
          "type": "bytes32"
        },
        {
          "name": "_vB",
          "type": "uint8"
        },
        {
          "name": "_rB",
          "type": "bytes32"
        },
        {
          "name": "_sB",
          "type": "bytes32"
        },
        {
          "name": "_close",
          "type": "bool"
        }
      ],
      "name": "publishCustomerUT",
      "outputs": [
        {
          "name": "",
          "type": "bool"
        }
      ],
      "payable": false,
      "stateMutability": "nonpayable",
      "type": "function"
    },
    {
      "constant": false,
      "inputs": [
        {
          "name": "_merchant",
          "type": "address"
        },
        {
          "name": "_reserve",
          "type": "uint256"
        }
      ],
      "name": "newMerchant",
      "outputs": [
        {
          "name": "",
          "type": "bool"
        }
      ],
      "payable": false,
      "stateMutability": "nonpayable",
      "type": "function"
    },
    {
      "constant": false,
      "inputs": [
        {
          "name": "_merchant",
          "type": "address"
        }
      ],
      "name": "closeMerchantChannel",
      "outputs": [
        {
          "name": "",
          "type": "bool"
        }
      ],
      "payable": false,
      "stateMutability": "nonpayable",
      "type": "function"
    },
    {
      "constant": true,
      "inputs": [
        {
          "name": "_merchant",
          "type": "address"
        },
        {
          "name": "_sequenceNumber",
          "type": "uint256"
        },
        {
          "name": "_balanceShift",
          "type": "uint256"
        },
        {
          "name": "_close",
          "type": "bool"
        }
      ],
      "name": "merchantUT",
      "outputs": [
        {
          "name": "",
          "type": "bytes32"
        }
      ],
      "payable": false,
      "stateMutability": "view",
      "type": "function"
    },
    {
      "constant": true,
      "inputs": [
        {
          "name": "_merchant",
          "type": "address"
        },
        {
          "name": "_sequenceNumber",
          "type": "uint256"
        },
        {
          "name": "_balanceShift",
          "type": "uint256"
        },
        {
          "name": "_close",
          "type": "bool"
        }
      ],
      "name": "validMerchantUT",
      "outputs": [
        {
          "name": "",
          "type": "bool"
        }
      ],
      "payable": false,
      "stateMutability": "view",
      "type": "function"
    },
    {
      "constant": false,
      "inputs": [
        {
          "name": "_merchant",
          "type": "address"
        },
        {
          "name": "_sequenceNumber",
          "type": "uint256"
        },
        {
          "name": "_balanceShift",
          "type": "uint256"
        },
        {
          "name": "_vA",
          "type": "uint8"
        },
        {
          "name": "_rA",
          "type": "bytes32"
        },
        {
          "name": "_sA",
          "type": "bytes32"
        },
        {
          "name": "_vB",
          "type": "uint8"
        },
        {
          "name": "_rB",
          "type": "bytes32"
        },
        {
          "name": "_sB",
          "type": "bytes32"
        },
        {
          "name": "_close",
          "type": "bool"
        }
      ],
      "name": "publishMerchantUT",
      "outputs": [
        {
          "name": "",
          "type": "bool"
        }
      ],
      "payable": false,
      "stateMutability": "nonpayable",
      "type": "function"
    },
    {
      "constant": true,
      "inputs": [
        {
          "name": "_counterpart",
          "type": "address"
        },
        {
          "name": "_type",
          "type": "uint8"
        },
        {
          "name": "_sequenceNumber",
          "type": "uint256"
        },
        {
          "name": "_balanceShift",
          "type": "uint256"
        },
        {
          "name": "_close",
          "type": "bool"
        }
      ],
      "name": "_ut",
      "outputs": [
        {
          "name": "",
          "type": "bytes32"
        }
      ],
      "payable": false,
      "stateMutability": "view",
      "type": "function"
    },
    {
      "constant": true,
      "inputs": [
        {
          "name": "_wallet",
          "type": "address"
        },
        {
          "name": "_h",
          "type": "bytes32"
        },
        {
          "name": "_v",
          "type": "uint8"
        },
        {
          "name": "_r",
          "type": "bytes32"
        },
        {
          "name": "_s",
          "type": "bytes32"
        }
      ],
      "name": "_signatureCorrect",
      "outputs": [
        {
          "name": "",
          "type": "bool"
        }
      ],
      "payable": false,
      "stateMutability": "pure",
      "type": "function"
    }
  ],
  "bytecode": "0x6080604052336000806101000a81548173ffffffffffffffffffffffffffffffffffffffff021916908373ffffffffffffffffffffffffffffffffffffffff160217905550346004600082825401925050819055507f3fad920548ed9f22deb8333b4cc1e4f9bc36666a1c2aa30ad59a0a3bb9dcbb9260405160405180910390a1611a8a8061008f6000396000f300608060405260043610610112576000357c0100000000000000000000000000000000000000000000000000000000900463ffffffff168063097d5155146101175780630cc95c4a146101425780631dda645e146101c25780633c0b24b71461021d5780633f77f4601461023f5780634c91b2ed146102ba5780635a53c8661461031f5780635f75ed161461034a57806370e0178a146103dc57806383738481146103fe5780638d1eb9af1461047d5780638da5cb5b146104a8578063bce1df4d146104ff578063c4b12efb146105cc578063c714c00014610611578063caecaf1c1461069d578063e243cd9e1461076a578063e5f363f914610795578063fbb1a528146107f0578063fcf2b4111461086b575b600080fd5b34801561012357600080fd5b5061012c6108ea565b6040518082815260200191505060405180910390f35b34801561014e57600080fd5b50610190600480360381019080803573ffffffffffffffffffffffffffffffffffffffff169060200190929190803560ff1690602001909291905050506108f1565b604051808681526020018581526020018481526020018381526020018281526020019550505050505060405180910390f35b3480156101ce57600080fd5b50610203600480360381019080803573ffffffffffffffffffffffffffffffffffffffff169060200190929190505050610934565b604051808215151515815260200191505060405180910390f35b6102256109ef565b604051808215151515815260200191505060405180910390f35b34801561024b57600080fd5b506102a0600480360381019080803573ffffffffffffffffffffffffffffffffffffffff1690602001909291908035906020019092919080359060200190929190803515159060200190929190505050610a9a565b604051808215151515815260200191505060405180910390f35b3480156102c657600080fd5b50610305600480360381019080803573ffffffffffffffffffffffffffffffffffffffff16906020019092919080359060200190929190505050610ab4565b604051808215151515815260200191505060405180910390f35b34801561032b57600080fd5b50610334610b58565b6040518082815260200191505060405180910390f35b34801561035657600080fd5b506103c2600480360381019080803573ffffffffffffffffffffffffffffffffffffffff1690602001909291908035600019169060200190929190803560ff16906020019092919080356000191690602001909291908035600019169060200190929190505050610b5e565b604051808215151515815260200191505060405180910390f35b6103e4610c5f565b604051808215151515815260200191505060405180910390f35b34801561040a57600080fd5b5061045f600480360381019080803573ffffffffffffffffffffffffffffffffffffffff1690602001909291908035906020019092919080359060200190929190803515159060200190929190505050610c8f565b60405180826000191660001916815260200191505060405180910390f35b34801561048957600080fd5b50610492610ca9565b6040518082815260200191505060405180910390f35b3480156104b457600080fd5b506104bd610caf565b604051808273ffffffffffffffffffffffffffffffffffffffff1673ffffffffffffffffffffffffffffffffffffffff16815260200191505060405180910390f35b34801561050b57600080fd5b506105b2600480360381019080803573ffffffffffffffffffffffffffffffffffffffff1690602001909291908035906020019092919080359060200190929190803560ff16906020019092919080356000191690602001909291908035600019169060200190929190803560ff16906020019092919080356000191690602001909291908035600019169060200190929190803515159060200190929190505050610cd4565b604051808215151515815260200191505060405180910390f35b3480156105d857600080fd5b506105f760048036038101908080359060200190929190505050610d6c565b604051808215151515815260200191505060405180910390f35b34801561061d57600080fd5b5061067f600480360381019080803573ffffffffffffffffffffffffffffffffffffffff169060200190929190803560ff1690602001909291908035906020019092919080359060200190929190803515159060200190929190505050610ea8565b60405180826000191660001916815260200191505060405180910390f35b3480156106a957600080fd5b50610750600480360381019080803573ffffffffffffffffffffffffffffffffffffffff1690602001909291908035906020019092919080359060200190929190803560ff16906020019092919080356000191690602001909291908035600019169060200190929190803560ff1690602001909291908035600019169060200190929190803560001916906020019092919080351515906020019092919050505061106a565b604051808215151515815260200191505060405180910390f35b34801561077657600080fd5b5061077f611102565b6040518082815260200191505060405180910390f35b3480156107a157600080fd5b506107d6600480360381019080803573ffffffffffffffffffffffffffffffffffffffff169060200190929190505050611108565b604051808215151515815260200191505060405180910390f35b3480156107fc57600080fd5b50610851600480360381019080803573ffffffffffffffffffffffffffffffffffffffff16906020019092919080359060200190929190803590602001909291908035151590602001909291905050506111c3565b604051808215151515815260200191505060405180910390f35b34801561087757600080fd5b506108cc600480360381019080803573ffffffffffffffffffffffffffffffffffffffff16906020019092919080359060200190929190803590602001909291908035151590602001909291905050506111dd565b60405180826000191660001916815260200191505060405180910390f35b6201518081565b6001602052816000526040600020602052806000526040600020600091509150508060000154908060010154908060020154908060030154908060040154905085565b6000816000809054906101000a900473ffffffffffffffffffffffffffffffffffffffff1673ffffffffffffffffffffffffffffffffffffffff163373ffffffffffffffffffffffffffffffffffffffff1614806109bd57508073ffffffffffffffffffffffffffffffffffffffff163373ffffffffffffffffffffffffffffffffffffffff16145b15156109c857600080fd5b6109d38360026111f7565b15156109de57600080fd5b6109e78361126e565b915050919050565b60008060009054906101000a900473ffffffffffffffffffffffffffffffffffffffff1673ffffffffffffffffffffffffffffffffffffffff163373ffffffffffffffffffffffffffffffffffffffff16141515610a4c57600080fd5b346004600082825401925050819055507fce0e6b00dfd1166fdcef786e4b04aa52980dd6beab7895ba9be7710d52ab576f346040518082815260200191505060405180910390a16001905090565b6000610aaa85600286868661135f565b9050949350505050565b60008060009054906101000a900473ffffffffffffffffffffffffffffffffffffffff1673ffffffffffffffffffffffffffffffffffffffff163373ffffffffffffffffffffffffffffffffffffffff16141515610b1157600080fd5b610b19611451565b8211151515610b2757600080fd5b610b3383600284611474565b1515610b3e57600080fd5b816003600082825401925050819055506001905092915050565b60025481565b600060018560405180807f19457468657265756d205369676e6564204d6573736167653a0a333200000000815250601c0182600019166000191681526020019150506040518091039020858585604051600081526020016040526040518085600019166000191681526020018460ff1660ff1681526020018360001916600019168152602001826000191660001916815260200194505050505060206040516020810390808403906000865af1158015610c1c573d6000803e3d6000fd5b5050506020604051035173ffffffffffffffffffffffffffffffffffffffff168673ffffffffffffffffffffffffffffffffffffffff1614905095945050505050565b6000610c6d33600134611474565b1515610c7857600080fd5b346002600082825401925050819055506001905090565b6000610c9f856002868686610ea8565b9050949350505050565b60035481565b6000809054906101000a900473ffffffffffffffffffffffffffffffffffffffff1681565b600080610ce38c8c8c866111c3565b1515610cee57600080fd5b610cfa8c8c8c866111dd565b9050610d098c828b8b8b610b5e565b1515610d1457600080fd5b610d426000809054906101000a900473ffffffffffffffffffffffffffffffffffffffff1682888888610b5e565b1515610d4d57600080fd5b610d5b8c60018d8d87611642565b9150509a9950505050505050505050565b60008060009054906101000a900473ffffffffffffffffffffffffffffffffffffffff1673ffffffffffffffffffffffffffffffffffffffff163373ffffffffffffffffffffffffffffffffffffffff16141515610dc957600080fd5b610dd1611451565b8211151515610ddf57600080fd5b6004548211151515610df057600080fd5b816004600082825403925050819055506000809054906101000a900473ffffffffffffffffffffffffffffffffffffffff1673ffffffffffffffffffffffffffffffffffffffff166108fc839081150290604051600060405180830381858888f19350505050158015610e67573d6000803e3d6000fd5b507f7a15bc2f609c71257969c65784b9081adec0a55c3f6a0715f496e1e66d3b8ee0346040518082815260200191505060405180910390a160019050919050565b60006002308787878787600160008e73ffffffffffffffffffffffffffffffffffffffff1673ffffffffffffffffffffffffffffffffffffffff16815260200190815260200160002060008d6002811115610eff57fe5b60ff1660ff16815260200190815260200160002060000154604051808873ffffffffffffffffffffffffffffffffffffffff1673ffffffffffffffffffffffffffffffffffffffff166c010000000000000000000000000281526014018773ffffffffffffffffffffffffffffffffffffffff1673ffffffffffffffffffffffffffffffffffffffff166c01000000000000000000000000028152601401866002811115610fa957fe5b60ff167f010000000000000000000000000000000000000000000000000000000000000002815260010185815260200184815260200183151515157f01000000000000000000000000000000000000000000000000000000000000000281526001018281526020019750505050505050506020604051808303816000865af1158015611039573d6000803e3d6000fd5b5050506040513d602081101561104e57600080fd5b8101908080519060200190929190505050905095945050505050565b6000806110798c8c8c86610a9a565b151561108457600080fd5b6110908c8c8c86610c8f565b905061109f8c828b8b8b610b5e565b15156110aa57600080fd5b6110d86000809054906101000a900473ffffffffffffffffffffffffffffffffffffffff1682888888610b5e565b15156110e357600080fd5b6110f18c60028d8d87611642565b9150509a9950505050505050505050565b60045481565b6000816000809054906101000a900473ffffffffffffffffffffffffffffffffffffffff1673ffffffffffffffffffffffffffffffffffffffff163373ffffffffffffffffffffffffffffffffffffffff16148061119157508073ffffffffffffffffffffffffffffffffffffffff163373ffffffffffffffffffffffffffffffffffffffff16145b151561119c57600080fd5b6111a78360016111f7565b15156111b257600080fd5b6111bb836117b2565b915050919050565b60006111d385600186868661135f565b9050949350505050565b60006111ed856001868686610ea8565b9050949350505050565b60004262015180600160008673ffffffffffffffffffffffffffffffffffffffff1673ffffffffffffffffffffffffffffffffffffffff168152602001908152602001600020600085600281111561124b57fe5b60ff1660ff16815260200190815260200160002060040154011115905092915050565b600080600061127e846002611839565b9150600160008573ffffffffffffffffffffffffffffffffffffffff1673ffffffffffffffffffffffffffffffffffffffff16815260200190815260200160002060006002808111156112cd57fe5b60ff1660ff1681526020019081526020016000206001015490506112f2846002611947565b15156112fd57600080fd5b8373ffffffffffffffffffffffffffffffffffffffff166108fc839081150290604051600060405180830381858888f19350505050158015611343573d6000803e3d6000fd5b5080600360008282540392505081905550600192505050919050565b6000611369611a2e565b600160008873ffffffffffffffffffffffffffffffffffffffff1673ffffffffffffffffffffffffffffffffffffffff16815260200190815260200160002060008760028111156113b657fe5b60ff1660ff16815260200190815260200160002060a06040519081016040529081600082015481526020016001820154815260200160028201548152602001600382015481526020016004820154815250509050600081600001511415151561141e57600080fd5b8381602001511015151561143157600080fd5b84816060015110151561144357600080fd5b600191505095945050505050565b60006003543073ffffffffffffffffffffffffffffffffffffffff163103905090565b600080600160008673ffffffffffffffffffffffffffffffffffffffff1673ffffffffffffffffffffffffffffffffffffffff16815260200190815260200160002060008560028111156114c457fe5b60ff1660ff168152602001908152602001600020600001541415156114e857600080fd5b6000821115156114f757600080fd5b60008473ffffffffffffffffffffffffffffffffffffffff161415151561151d57600080fd5b60a060405190810160405280428152602001838152602001600081526020016000815260200142815250600160008673ffffffffffffffffffffffffffffffffffffffff1673ffffffffffffffffffffffffffffffffffffffff168152602001908152602001600020600085600281111561159457fe5b60ff1660ff16815260200190815260200160002060008201518160000155602082015181600101556040820151816002015560608201518160030155608082015181600401559050508260028111156115e957fe5b8473ffffffffffffffffffffffffffffffffffffffff167f207159d5ea68f53226e9955c8a59191f75c3c9bc71a5693663321a5f1cc78cf8846040518082815260200191505060405180910390a3600190509392505050565b600080600160008873ffffffffffffffffffffffffffffffffffffffff1673ffffffffffffffffffffffffffffffffffffffff168152602001908152602001600020600087600281111561169257fe5b60ff1660ff1681526020019081526020016000209050848160030181905550838160020181905550428160040181905550821561173657600160028111156116d657fe5b8660028111156116e257fe5b1415611701576116f1876117b2565b15156116fc57600080fd5b611735565b60028081111561170d57fe5b86600281111561171957fe5b1415611734576117288761126e565b151561173357600080fd5b5b5b5b85600281111561174257fe5b8773ffffffffffffffffffffffffffffffffffffffff167f13431d82baf01244aa52ecbf7c8c570e51785ef2a33ff9a25c84f64e0fdc84ac8787876040518084815260200183815260200182151515158152602001935050505060405180910390a3600191505095945050505050565b6000806117c0836001611839565b90506117cd836001611947565b15156117d857600080fd5b806002600082825403925050819055508273ffffffffffffffffffffffffffffffffffffffff166108fc829081150290604051600060405180830381858888f1935050505015801561182e573d6000803e3d6000fd5b506001915050919050565b6000611843611a2e565b600160008573ffffffffffffffffffffffffffffffffffffffff1673ffffffffffffffffffffffffffffffffffffffff168152602001908152602001600020600084600281111561189057fe5b60ff1660ff16815260200190815260200160002060a06040519081016040529081600082015481526020016001820154815260200160028201548152602001600382015481526020016004820154815250509050600160028111156118f157fe5b8360028111156118fd57fe5b14156119155780604001518160200151039150611940565b60028081111561192157fe5b83600281111561192d57fe5b141561193f5780604001519150611940565b5b5092915050565b6000600160008473ffffffffffffffffffffffffffffffffffffffff1673ffffffffffffffffffffffffffffffffffffffff168152602001908152602001600020600083600281111561199657fe5b60ff1660ff168152602001908152602001600020600080820160009055600182016000905560028201600090556003820160009055600482016000905550508160028111156119e157fe5b8373ffffffffffffffffffffffffffffffffffffffff167f770342ee36990141b5b1f4b3b41a184d7968647ac7f0dbfd2d86d566c468027d60405160405180910390a36001905092915050565b60a060405190810160405280600081526020016000815260200160008152602001600081526020016000815250905600a165627a7a72305820ca19f01b2f13bf9dc201b901b4f081b11b0ddf56d5da07b7c669a38c33123a530029",
  "source": "pragma solidity ^0.4.16;\r\n\r\n\r\ncontract MultiPaymentChannel {\r\n\r\n    enum ChannelType {\r\n        UNKNOWN,\r\n        CUSTOMER,\r\n        MERCHANT\r\n    }\r\n\r\n    address public owner;\r\n    mapping (address => mapping (uint8 => PaymentChannel)) public channels;\r\n\r\n    uint256 constant public holdTime = 24 * 60 * 60;\r\n\r\n    uint256 public totalCustomersFunds;\r\n    uint256 public totalMerchantFunds;\r\n    uint256 public totalProcessingFunds;\r\n\r\n    struct PaymentChannel {\r\n        uint256 created;\r\n        uint256 deposited;\r\n        uint256 spent;\r\n        uint256 sequenceNumber;\r\n        uint256 lastUpdate;\r\n    }\r\n\r\n    event Deployed();\r\n    event ProcessingDeposit(uint256 amount);\r\n    event ProcessingWithdraw(uint256 amount);\r\n    event ChannelCreated(address indexed counterpart, uint256 indexed channelType, uint256 volume);\r\n    event ChannelUpdated(address indexed counterpart, uint256 indexed channelType, uint256 sequenceNumber, uint256 spent, bool close);\r\n    event ChannelClosed(address indexed counterpart, uint256 indexed channelType);\r\n\r\n\r\n    function MultiPaymentChannel () public payable {\r\n        owner = msg.sender;\r\n        totalProcessingFunds += msg.value;\r\n        Deployed();\r\n    }\r\n\r\n\r\n    /**\r\n     *   Processing funds management\r\n     */\r\n\r\n\r\n    function processingDeposit () external payable onlyOwner returns (bool)  {\r\n        totalProcessingFunds += msg.value;\r\n        ProcessingDeposit(msg.value);\r\n        return true;\r\n    }\r\n\r\n\r\n    function processingWithdraw (uint256 _withdrawAmount)\r\n        external\r\n        onlyOwner\r\n        returns (bool)\r\n    {\r\n        require (_withdrawAmount <= freeFunds());\r\n        require (_withdrawAmount <= totalProcessingFunds);\r\n        totalProcessingFunds -= _withdrawAmount;\r\n        owner.transfer(_withdrawAmount);\r\n        ProcessingWithdraw(msg.value);\r\n        return true;\r\n    }\r\n\r\n\r\n    /**\r\n     *   Customer payment channels\r\n     */\r\n\r\n\r\n    function newCustomer () external payable returns (bool) {\r\n        require (_openChannel(msg.sender, ChannelType.CUSTOMER, msg.value));\r\n        totalCustomersFunds += msg.value;\r\n        return true;\r\n    }\r\n\r\n\r\n    function closeCustomerChannel ( address _customer )\r\n        external onlyChannelParticipant(_customer) returns (bool)\r\n    {\r\n        require (channelCanBeClosedByTimer(_customer, ChannelType.CUSTOMER));\r\n        return _closeCustomerChannel(_customer);\r\n    }\r\n\r\n\r\n    function _closeCustomerChannel (address _customer) internal returns (bool) {\r\n        uint256 payToCustomer = toBePayedOnChannelClose(_customer, ChannelType.CUSTOMER);\r\n        require(_eraseChannelRecord(_customer, ChannelType.CUSTOMER));\r\n        totalCustomersFunds -= payToCustomer;\r\n        _customer.transfer(payToCustomer);\r\n        return true;\r\n    }\r\n\r\n\r\n    function customerUT (\r\n        address _customer,\r\n        uint256 _sequenceNumber,\r\n        uint256 _balanceShift,\r\n        bool _close\r\n    ) public view returns (bytes32)\r\n    {\r\n        return _ut(_customer, ChannelType.CUSTOMER, _sequenceNumber, _balanceShift, _close);\r\n    }\r\n\r\n\r\n    function validCustomerUT (\r\n        address _customer,\r\n        uint256 _sequenceNumber,\r\n        uint256 _balanceShift,\r\n        bool _close\r\n    ) public view returns (bool) {\r\n        return _validUT(_customer, ChannelType.CUSTOMER, _sequenceNumber, _balanceShift, _close);\r\n    }\r\n\r\n\r\n    function publishCustomerUT (\r\n        address _customer,\r\n        uint256 _sequenceNumber,\r\n        uint256 _balanceShift,\r\n        uint8 _vA, bytes32 _rA, bytes32 _sA, // customer\r\n        uint8 _vB, bytes32 _rB, bytes32 _sB,  // owner (processing)\r\n        bool _close\r\n    ) public returns (bool) {\r\n        require (validCustomerUT(_customer, _sequenceNumber, _balanceShift, _close));\r\n        bytes32 message = customerUT(_customer, _sequenceNumber, _balanceShift, _close);\r\n        require (_signatureCorrect(_customer, message, _vA, _rA, _sA));\r\n        require (_signatureCorrect(owner, message, _vB, _rB, _sB));\r\n        return _applyUpdateTransaction(_customer, ChannelType.CUSTOMER, _sequenceNumber, _balanceShift, _close);\r\n    }\r\n\r\n//\r\n\r\n\r\n    function newMerchant (address _merchant, uint256 _reserve)\r\n        onlyOwner external returns (bool)\r\n    {\r\n        require (_reserve <= freeFunds());\r\n        require (_openChannel(_merchant, ChannelType.MERCHANT, _reserve));\r\n        totalMerchantFunds += _reserve;\r\n        return true;\r\n    }\r\n\r\n\r\n    function closeMerchantChannel ( address _merchant )\r\n        external onlyChannelParticipant(_merchant) returns (bool)\r\n    {\r\n        require (channelCanBeClosedByTimer(_merchant, ChannelType.MERCHANT));\r\n        return _closeMerchantChannel(_merchant);\r\n    }\r\n\r\n\r\n    function _closeMerchantChannel (address _merchant) internal returns (bool) {\r\n        uint256 payToMerchant = toBePayedOnChannelClose(_merchant, ChannelType.MERCHANT);\r\n        uint256 freezed = channels[_merchant][uint8(ChannelType.MERCHANT)].deposited;\r\n        require(_eraseChannelRecord(_merchant, ChannelType.MERCHANT));\r\n        _merchant.transfer(payToMerchant);\r\n        totalMerchantFunds -= freezed;\r\n        return true;\r\n    }\r\n\r\n\r\n    function merchantUT (\r\n        address _merchant,\r\n        uint256 _sequenceNumber,\r\n        uint256 _balanceShift,\r\n        bool _close\r\n    ) public view returns (bytes32)\r\n    {\r\n        return _ut(_merchant, ChannelType.MERCHANT, _sequenceNumber, _balanceShift, _close);\r\n    }\r\n\r\n\r\n    function validMerchantUT (\r\n        address _merchant,\r\n        uint256 _sequenceNumber,\r\n        uint256 _balanceShift,\r\n        bool _close\r\n    ) public view returns (bool) {\r\n        return _validUT(_merchant, ChannelType.MERCHANT, _sequenceNumber, _balanceShift, _close);\r\n    }\r\n\r\n\r\n    function publishMerchantUT (\r\n        address _merchant,\r\n        uint256 _sequenceNumber,\r\n        uint256 _balanceShift,\r\n        uint8 _vA, bytes32 _rA, bytes32 _sA, // merchant\r\n        uint8 _vB, bytes32 _rB, bytes32 _sB, // owner (processing)\r\n        bool _close\r\n    ) public returns (bool) {\r\n        require (validMerchantUT(_merchant, _sequenceNumber, _balanceShift, _close));\r\n        bytes32 message = merchantUT(_merchant, _sequenceNumber, _balanceShift, _close);\r\n        require (_signatureCorrect(_merchant, message, _vA, _rA, _sA));\r\n        require (_signatureCorrect(owner, message, _vB, _rB, _sB));\r\n        return _applyUpdateTransaction(_merchant, ChannelType.MERCHANT, _sequenceNumber, _balanceShift, _close);\r\n    }\r\n\r\n//\r\n\r\n\r\n    function _ut (\r\n        address _counterpart,\r\n        ChannelType _type,\r\n        uint256 _sequenceNumber,\r\n        uint256 _balanceShift,\r\n        bool _close\r\n    ) public view returns (bytes32)\r\n    {\r\n        return sha256(\r\n            address(this),\r\n            _counterpart,\r\n            _type,\r\n            _sequenceNumber,\r\n            _balanceShift,\r\n            _close,\r\n            channels[_counterpart][uint8(_type)].created // prevents reusing\r\n        );\r\n    }\r\n\r\n\r\n    function _validUT (\r\n        address _counterpart,\r\n        ChannelType _type,\r\n        uint256 _sequenceNumber,\r\n        uint256 _balanceShift,\r\n        bool _close\r\n    ) internal view returns (bool)\r\n    {\r\n        PaymentChannel memory channel = channels[_counterpart][uint8(_type)];\r\n        require (channel.created != 0);\r\n        require (channel.deposited >= _balanceShift);\r\n        require (channel.sequenceNumber < _sequenceNumber);\r\n        return true;\r\n    }\r\n\r\n    // // debug function\r\n    // function recover (bytes32 _h, uint8 _v, bytes32 _r, bytes32 _s) public pure returns (address) {\r\n    //     return ecrecover(keccak256(\"\\x19Ethereum Signed Message:\\n32\", _h), _v, _r, _s);\r\n    // }\r\n\r\n    // // alternative implementation\r\n    // function recover2(bytes32 hash, bytes sig)\r\n    //   public\r\n    //   pure\r\n    //   returns (address)\r\n    // {\r\n    //   bytes32 r;\r\n    //   bytes32 s;\r\n    //   uint8 v;\r\n    //\r\n    //   // Check the signature length\r\n    //   if (sig.length != 65) {\r\n    //     return (address(0));\r\n    //   }\r\n    //\r\n    //   // Divide the signature in r, s and v variables\r\n    //   // ecrecover takes the signature parameters, and the only way to get them\r\n    //   // currently is to use assembly.\r\n    //   // solium-disable-next-line security/no-inline-assembly\r\n    //   assembly {\r\n    //     r := mload(add(sig, 32))\r\n    //     s := mload(add(sig, 64))\r\n    //     v := byte(0, mload(add(sig, 96)))\r\n    //   }\r\n    //\r\n    //   // Version of signature should be 27 or 28, but 0 and 1 are also possible versions\r\n    //   if (v < 27) {\r\n    //     v += 27;\r\n    //   }\r\n    //\r\n    //   // If the version is correct return the signer address\r\n    //   if (v != 27 && v != 28) {\r\n    //     return (address(0));\r\n    //   } else {\r\n    //     // solium-disable-next-line arg-overflow\r\n    //     return ecrecover(keccak256(\"\\x19Ethereum Signed Message:\\n32\", hash), v, r, s);\r\n    //   }\r\n    // }\r\n\r\n    function _signatureCorrect (\r\n        address _wallet,\r\n        bytes32 _h, uint8 _v, bytes32 _r, bytes32 _s\r\n    ) public pure returns (bool)\r\n    {\r\n        return _wallet == ecrecover(keccak256(\"\\x19Ethereum Signed Message:\\n32\", _h), _v, _r, _s);\r\n    }\r\n\r\n\r\n    function freeFunds ()\r\n        internal view returns (uint256)\r\n    {\r\n        return address(this).balance - totalMerchantFunds;\r\n    }\r\n\r\n\r\n    function channelCanBeClosedByTimer(address _counterpart, ChannelType _type)\r\n        internal view returns (bool)\r\n    {\r\n        return channels[_counterpart][uint8(_type)].lastUpdate + holdTime <= block.timestamp;\r\n    }\r\n\r\n\r\n    function toBePayedOnChannelClose(address _counterpart, ChannelType _type)\r\n        internal view returns (uint256)\r\n    {\r\n        PaymentChannel memory pc = channels[_counterpart][uint8(_type)];\r\n        if (_type == ChannelType.CUSTOMER) {\r\n            return pc.deposited - pc.spent;\r\n        } else if (_type == ChannelType.MERCHANT) {\r\n            return pc.spent;\r\n        }\r\n    }\r\n\r\n\r\n    function channelCanBeClosedBySignature(address _counterpart, ChannelType _type, bytes32 _sigA, bytes32 _sigB)\r\n        internal view returns (bool)\r\n    {\r\n        return false;\r\n    }\r\n\r\n\r\n    /**\r\n     *   Low-level functions for payment channels section\r\n     */\r\n\r\n    function _openChannel(\r\n        address _counterpart,\r\n        ChannelType _type,\r\n        uint256 _deposit\r\n    ) internal returns (bool) {\r\n        require(channels[_counterpart][uint8(_type)].created == 0);\r\n        require(_deposit > 0);\r\n        require(_counterpart != 0x0);\r\n\r\n        channels[_counterpart][uint8(_type)] = PaymentChannel(\r\n            block.timestamp,    // uint256 created\r\n            _deposit,           // uint256 deposited\r\n            0,                  // uint256 spent\r\n            0,                  // uint256 sequenceNumber\r\n            block.timestamp     // uint256 lastUpdate\r\n        );\r\n        ChannelCreated(_counterpart, uint256(_type), _deposit);\r\n        return true;\r\n    }\r\n\r\n\r\n    function _applyUpdateTransaction(\r\n        address _counterpart,\r\n        ChannelType _type,\r\n        uint256 _sequenceNumber,\r\n        uint256 _spent,\r\n        bool _close\r\n    ) internal returns (bool) {\r\n        PaymentChannel storage channel = channels[_counterpart][uint8(_type)];\r\n        channel.sequenceNumber = _sequenceNumber;\r\n        channel.spent = _spent;\r\n        channel.lastUpdate = block.timestamp;\r\n        if (_close) {\r\n            if (_type == ChannelType.CUSTOMER) {\r\n                require (_closeCustomerChannel(_counterpart));\r\n            } else if (_type == ChannelType.MERCHANT) {\r\n                require (_closeMerchantChannel(_counterpart));\r\n            }\r\n        }\r\n        ChannelUpdated(_counterpart, uint256(_type), _sequenceNumber, _spent, _close);\r\n        return true;\r\n    }\r\n\r\n\r\n    function _eraseChannelRecord(\r\n        address _counterpart,\r\n        ChannelType _type\r\n    ) internal returns (bool) {\r\n        delete channels[_counterpart][uint8(_type)];\r\n        ChannelClosed(_counterpart, uint256(_type));\r\n        return true;\r\n    }\r\n\r\n\r\n    modifier onlyOwner() {\r\n        require (msg.sender == owner);\r\n        _;\r\n    }\r\n\r\n\r\n    modifier onlyChannelParticipant(address _counterpart) {\r\n        require (msg.sender == owner || msg.sender == _counterpart);\r\n        _;\r\n    }\r\n\r\n\r\n}\r\n",
  "sourcePath": "D:\\Work\\Fintech\\fastchain\\contracts\\contracts\\MultiPaymentChannel.sol",
  "compiler": {
    "name": "solc",
    "version": "0.4.24+commit.e67f0147.Emscripten.clang"
  },
  "schemaVersion": "2.0.1",
  "updatedAt": "2018-09-30T18:13:24.550Z"
}