{
  "contractName": "PaymentChannel",
  "abi": [
    {
      "constant": true,
      "inputs": [],
      "name": "payer",
      "outputs": [
        {
          "name": "",
          "type": "address"
        }
      ],
      "payable": false,
      "stateMutability": "view",
      "type": "function"
    },
    {
      "constant": true,
      "inputs": [],
      "name": "sequenceNumber",
      "outputs": [
        {
          "name": "",
          "type": "uint256"
        }
      ],
      "payable": false,
      "stateMutability": "view",
      "type": "function"
    },
    {
      "constant": true,
      "inputs": [],
      "name": "lastUpdateBlock",
      "outputs": [
        {
          "name": "",
          "type": "uint256"
        }
      ],
      "payable": false,
      "stateMutability": "view",
      "type": "function"
    },
    {
      "constant": true,
      "inputs": [],
      "name": "payee",
      "outputs": [
        {
          "name": "",
          "type": "address"
        }
      ],
      "payable": false,
      "stateMutability": "view",
      "type": "function"
    },
    {
      "constant": true,
      "inputs": [],
      "name": "state",
      "outputs": [
        {
          "name": "",
          "type": "uint8"
        }
      ],
      "payable": false,
      "stateMutability": "view",
      "type": "function"
    },
    {
      "constant": true,
      "inputs": [],
      "name": "balanceShift",
      "outputs": [
        {
          "name": "",
          "type": "uint256"
        }
      ],
      "payable": false,
      "stateMutability": "view",
      "type": "function"
    },
    {
      "constant": true,
      "inputs": [],
      "name": "channelVolume",
      "outputs": [
        {
          "name": "",
          "type": "uint256"
        }
      ],
      "payable": false,
      "stateMutability": "view",
      "type": "function"
    },
    {
      "constant": true,
      "inputs": [],
      "name": "holdPeriod",
      "outputs": [
        {
          "name": "",
          "type": "uint256"
        }
      ],
      "payable": false,
      "stateMutability": "view",
      "type": "function"
    },
    {
      "constant": true,
      "inputs": [],
      "name": "explicitClose",
      "outputs": [
        {
          "name": "",
          "type": "bool"
        }
      ],
      "payable": false,
      "stateMutability": "view",
      "type": "function"
    },
    {
      "inputs": [
        {
          "name": "_payer",
          "type": "address"
        },
        {
          "name": "_payee",
          "type": "address"
        },
        {
          "name": "_channelVolume",
          "type": "uint256"
        },
        {
          "name": "_holdPeriod",
          "type": "uint256"
        }
      ],
      "payable": true,
      "stateMutability": "payable",
      "type": "constructor"
    },
    {
      "payable": true,
      "stateMutability": "payable",
      "type": "fallback"
    },
    {
      "anonymous": false,
      "inputs": [
        {
          "indexed": true,
          "name": "paymentChannel",
          "type": "address"
        },
        {
          "indexed": false,
          "name": "oldState",
          "type": "uint8"
        },
        {
          "indexed": false,
          "name": "newState",
          "type": "uint8"
        }
      ],
      "name": "PaymentChannelStateChange",
      "type": "event"
    },
    {
      "anonymous": false,
      "inputs": [],
      "name": "UpdateTxPosted",
      "type": "event"
    },
    {
      "constant": false,
      "inputs": [
        {
          "name": "_sequenceNumber",
          "type": "uint256"
        },
        {
          "name": "_balanceShift",
          "type": "uint256"
        },
        {
          "name": "_immediateClose",
          "type": "bool"
        },
        {
          "name": "_vA",
          "type": "uint8"
        },
        {
          "name": "_rA",
          "type": "bytes32"
        },
        {
          "name": "_sA",
          "type": "bytes32"
        },
        {
          "name": "_vB",
          "type": "uint8"
        },
        {
          "name": "_rB",
          "type": "bytes32"
        },
        {
          "name": "_sB",
          "type": "bytes32"
        }
      ],
      "name": "updateTransaction",
      "outputs": [],
      "payable": false,
      "stateMutability": "nonpayable",
      "type": "function"
    },
    {
      "constant": false,
      "inputs": [],
      "name": "cancel",
      "outputs": [],
      "payable": false,
      "stateMutability": "nonpayable",
      "type": "function"
    },
    {
      "constant": false,
      "inputs": [],
      "name": "claim",
      "outputs": [],
      "payable": false,
      "stateMutability": "nonpayable",
      "type": "function"
    },
    {
      "constant": true,
      "inputs": [
        {
          "name": "_account",
          "type": "address"
        },
        {
          "name": "_h",
          "type": "bytes32"
        },
        {
          "name": "_v",
          "type": "uint8"
        },
        {
          "name": "_r",
          "type": "bytes32"
        },
        {
          "name": "_s",
          "type": "bytes32"
        }
      ],
      "name": "signatureCorrect",
      "outputs": [
        {
          "name": "",
          "type": "bool"
        }
      ],
      "payable": false,
      "stateMutability": "pure",
      "type": "function"
    },
    {
      "constant": true,
      "inputs": [
        {
          "name": "_ord",
          "type": "uint256"
        },
        {
          "name": "_balanceShift",
          "type": "uint256"
        },
        {
          "name": "_immediateClose",
          "type": "bool"
        }
      ],
      "name": "messageToBeSigned",
      "outputs": [
        {
          "name": "",
          "type": "bytes32"
        }
      ],
      "payable": false,
      "stateMutability": "view",
      "type": "function"
    }
  ],
  "bytecode": "0x608060405260405160808061101f8339810180604052810190808051906020019092919080519060200190929190805190602001909291908051906020019092919050505060008473ffffffffffffffffffffffffffffffffffffffff161415151561006a57600080fd5b60008373ffffffffffffffffffffffffffffffffffffffff161415151561009057600080fd5b8373ffffffffffffffffffffffffffffffffffffffff168373ffffffffffffffffffffffffffffffffffffffff16141515156100cb57600080fd5b6000811115156100da57600080fd5b6000821115156100e957600080fd5b600034148061012e57508373ffffffffffffffffffffffffffffffffffffffff163373ffffffffffffffffffffffffffffffffffffffff1614801561012d57508134145b5b151561013957600080fd5b836000806101000a81548173ffffffffffffffffffffffffffffffffffffffff021916908373ffffffffffffffffffffffffffffffffffffffff16021790555082600160006101000a81548173ffffffffffffffffffffffffffffffffffffffff021916908373ffffffffffffffffffffffffffffffffffffffff1602179055508160028190555080600681905550600034141561026e576001600860006101000a81548160ff021916908360038111156101f057fe5b02179055503073ffffffffffffffffffffffffffffffffffffffff167f3c9030f79a3f7f708fa6ac8a16ad67b434d4285880789f5de8f6ae3569f81ecc600060016040518083600381111561024157fe5b60ff16815260200182600381111561025557fe5b60ff1681526020019250505060405180910390a261030e565b6002600860006101000a81548160ff0219169083600381111561028d57fe5b0217905550436007819055503073ffffffffffffffffffffffffffffffffffffffff167f3c9030f79a3f7f708fa6ac8a16ad67b434d4285880789f5de8f6ae3569f81ecc60006002604051808360038111156102e557fe5b60ff1681526020018260038111156102f957fe5b60ff1681526020019250505060405180910390a25b50505050610cfe806103216000396000f3006080604052600436106100d0576000357c0100000000000000000000000000000000000000000000000000000000900463ffffffff168063123119cd146102135780634e71d92d1461026a57806364ca23ef14610281578063a218141b146102ac578063ae90b213146102d7578063c19d93fb1461032e578063c5eee6b414610367578063c940aeea146103fc578063d4ad23921461048e578063db15df22146104b9578063ea8a1af0146104e4578063f50bb813146104fb578063f5967a2f1461055a578063faceba3a14610585575b60018060038111156100de57fe5b600860009054906101000a900460ff1660038111156100f957fe5b14151561010557600080fd5b600160009054906101000a900473ffffffffffffffffffffffffffffffffffffffff1673ffffffffffffffffffffffffffffffffffffffff163373ffffffffffffffffffffffffffffffffffffffff1614151561016157600080fd5b6002543414151561017157600080fd5b436007819055506002600860006101000a81548160ff0219169083600381111561019757fe5b02179055503073ffffffffffffffffffffffffffffffffffffffff167f3c9030f79a3f7f708fa6ac8a16ad67b434d4285880789f5de8f6ae3569f81ecc60016002604051808360038111156101e857fe5b60ff1681526020018260038111156101fc57fe5b60ff1681526020019250505060405180910390a250005b34801561021f57600080fd5b506102286105b4565b604051808273ffffffffffffffffffffffffffffffffffffffff1673ffffffffffffffffffffffffffffffffffffffff16815260200191505060405180910390f35b34801561027657600080fd5b5061027f6105d9565b005b34801561028d57600080fd5b506102966106e1565b6040518082815260200191505060405180910390f35b3480156102b857600080fd5b506102c16106e7565b6040518082815260200191505060405180910390f35b3480156102e357600080fd5b506102ec6106ed565b604051808273ffffffffffffffffffffffffffffffffffffffff1673ffffffffffffffffffffffffffffffffffffffff16815260200191505060405180910390f35b34801561033a57600080fd5b50610343610713565b6040518082600381111561035357fe5b60ff16815260200191505060405180910390f35b34801561037357600080fd5b506103fa6004803603810190808035906020019092919080359060200190929190803515159060200190929190803560ff16906020019092919080356000191690602001909291908035600019169060200190929190803560ff16906020019092919080356000191690602001909291908035600019169060200190929190505050610726565b005b34801561040857600080fd5b50610474600480360381019080803573ffffffffffffffffffffffffffffffffffffffff1690602001909291908035600019169060200190929190803560ff1690602001909291908035600019169060200190929190803560001916906020019092919050505061086e565b604051808215151515815260200191505060405180910390f35b34801561049a57600080fd5b506104a361092a565b6040518082815260200191505060405180910390f35b3480156104c557600080fd5b506104ce610930565b6040518082815260200191505060405180910390f35b3480156104f057600080fd5b506104f9610936565b005b34801561050757600080fd5b5061053c6004803603810190808035906020019092919080359060200190929190803515159060200190929190505050610a00565b60405180826000191660001916815260200191505060405180910390f35b34801561056657600080fd5b5061056f610af8565b6040518082815260200191505060405180910390f35b34801561059157600080fd5b5061059a610afe565b604051808215151515815260200191505060405180910390f35b6000809054906101000a900473ffffffffffffffffffffffffffffffffffffffff1681565b60028060038111156105e757fe5b600860009054906101000a900460ff16600381111561060257fe5b14151561060e57600080fd5b6000809054906101000a900473ffffffffffffffffffffffffffffffffffffffff1673ffffffffffffffffffffffffffffffffffffffff163373ffffffffffffffffffffffffffffffffffffffff1614806106b65750600160009054906101000a900473ffffffffffffffffffffffffffffffffffffffff1673ffffffffffffffffffffffffffffffffffffffff163373ffffffffffffffffffffffffffffffffffffffff16145b15156106c157600080fd5b6006546007540143101515156106d657600080fd5b6106de610b11565b50565b60045481565b60075481565b600160009054906101000a900473ffffffffffffffffffffffffffffffffffffffff1681565b600860009054906101000a900460ff1681565b6000600280600381111561073657fe5b600860009054906101000a900460ff16600381111561075157fe5b14151561075d57600080fd5b8a60045410151561076d57600080fd5b8960025411151561077d57600080fd5b6002548a6002540111151561079157600080fd5b61079c8b8b8b610a00565b91506107cc6000809054906101000a900473ffffffffffffffffffffffffffffffffffffffff16838a8a8a61086e565b15156107d757600080fd5b610806600160009054906101000a900473ffffffffffffffffffffffffffffffffffffffff168387878761086e565b151561081157600080fd5b8a60048190555089600381905550436007819055507fa78748f7d2ed857a9cbf16eebb036a6e8ebb877acab5f7a3d65f33e52795e6a560405160405180910390a1881561086157610860610b11565b5b5050505050505050505050565b6000600185858585604051600081526020016040526040518085600019166000191681526020018460ff1660ff1681526020018360001916600019168152602001826000191660001916815260200194505050505060206040516020810390808403906000865af11580156108e7573d6000803e3d6000fd5b5050506020604051035173ffffffffffffffffffffffffffffffffffffffff168673ffffffffffffffffffffffffffffffffffffffff1614905095945050505050565b60035481565b60025481565b600180600381111561094457fe5b600860009054906101000a900460ff16600381111561095f57fe5b14151561096b57600080fd5b6000809054906101000a900473ffffffffffffffffffffffffffffffffffffffff1673ffffffffffffffffffffffffffffffffffffffff163373ffffffffffffffffffffffffffffffffffffffff161415156109c657600080fd5b6000809054906101000a900473ffffffffffffffffffffffffffffffffffffffff1673ffffffffffffffffffffffffffffffffffffffff16ff5b6000808215610a305760017f01000000000000000000000000000000000000000000000000000000000000000290505b3073ffffffffffffffffffffffffffffffffffffffff16600102856001028560010260025460010284604051808660001916600019168152602001856000191660001916815260200184600019166000191681526020018360001916600019168152602001827effffffffffffffffffffffffffffffffffffffffffffffffffffffffffffff19167effffffffffffffffffffffffffffffffffffffffffffffffffffffffffffff191681526001019550505050505060405180910390209150509392505050565b60065481565b600560009054906101000a900460ff1681565b60006002806003811115610b2157fe5b600860009054906101000a900460ff166003811115610b3c57fe5b141515610b4857600080fd5b6000809054906101000a900473ffffffffffffffffffffffffffffffffffffffff1673ffffffffffffffffffffffffffffffffffffffff163373ffffffffffffffffffffffffffffffffffffffff161480610bf05750600160009054906101000a900473ffffffffffffffffffffffffffffffffffffffff1673ffffffffffffffffffffffffffffffffffffffff163373ffffffffffffffffffffffffffffffffffffffff16145b1515610bfb57600080fd5b60006003541115610cce5760035491506000600381905550600160009054906101000a900473ffffffffffffffffffffffffffffffffffffffff1673ffffffffffffffffffffffffffffffffffffffff166108fc839081150290604051600060405180830381858888f1935050505015610ccd576003600860006101000a81548160ff02191690836003811115610c8e57fe5b02179055506000809054906101000a900473ffffffffffffffffffffffffffffffffffffffff1673ffffffffffffffffffffffffffffffffffffffff16ff5b5b50505600a165627a7a72305820b103b30351d06b2f1f6edea1060727a5af6c188b4741a978f0fd629a7d3c7abc0029",
  "source": "pragma solidity ^0.4.16;\r\n\r\n/**\r\n * Assymetric payment channel\r\n */\r\n\r\ncontract PaymentChannel {\r\n    enum ChannelState {\r\n        INACTIVE,       // - contract in this state never should be used,\r\n                        //   contract closing is valid reason for the\r\n                        //   contarct to be INACTIVE\r\n        New,            // - has been created, but not confirmed yet\r\n        Open,           // - channel is active now, accepting update transactions\r\n        Closed          // - just stays for the sake of clarity, as the contarct is killed\r\n                        //   after closing, it would be INACTIVE\r\n    }\r\n\r\n    // parties in the contract\r\n    address public payer;\r\n    address public payee;\r\n\r\n    uint256 public channelVolume;   // amount of Ether that both parties should transfer to contract\r\n    uint256 public balanceShift;    // resulted balance difference from initial 0s\r\n    uint256 public sequenceNumber;  // number of last update transaction\r\n    bool public explicitClose;\r\n\r\n    uint public holdPeriod;          // hold period (blocks)\r\n    uint public lastUpdateBlock;     // block number of last update transaction\r\n\r\n    ChannelState public state;\r\n    event PaymentChannelStateChange(\r\n        address indexed paymentChannel,\r\n        ChannelState oldState,\r\n        ChannelState newState);\r\n\r\n    event UpdateTxPosted();\r\n\r\n\r\n\r\n    function PaymentChannel (\r\n        address _payer,\r\n        address _payee,\r\n        uint256 _channelVolume,\r\n        uint256 _holdPeriod\r\n    )\r\n        public payable\r\n    {\r\n        require (_payer != 0x0);\r\n        require (_payee != 0x0);\r\n        require (_payee != _payer);\r\n        require (_holdPeriod > 0);\r\n        require (_channelVolume > 0);\r\n\r\n        require (msg.value == 0 ||\r\n            (msg.sender == _payer && msg.value == _channelVolume));\r\n\r\n        payer = _payer;\r\n        payee = _payee;\r\n        channelVolume = _channelVolume;\r\n        holdPeriod = _holdPeriod;\r\n\r\n        if (msg.value == 0) {\r\n            state = ChannelState.New;\r\n            emit PaymentChannelStateChange(this, ChannelState.INACTIVE, ChannelState.New);\r\n        } else {\r\n            state = ChannelState.Open;\r\n            lastUpdateBlock = block.number;\r\n            emit PaymentChannelStateChange(this, ChannelState.INACTIVE, ChannelState.Open);\r\n        }\r\n    }\r\n\r\n    function ( ) public payable onlyWithState(ChannelState.New)\r\n    {\r\n        require (msg.sender == payee);\r\n        require (msg.value == channelVolume);\r\n\r\n        lastUpdateBlock = block.number;\r\n        state = ChannelState.Open;\r\n        emit PaymentChannelStateChange(this, ChannelState.New, ChannelState.Open);\r\n    }\r\n\r\n    function updateTransaction (\r\n        uint256 _sequenceNumber,\r\n        uint256 _balanceShift,\r\n        bool _immediateClose,\r\n        uint8 _vA, bytes32 _rA, bytes32 _sA,\r\n        uint8 _vB, bytes32 _rB, bytes32 _sB\r\n    )\r\n        public\r\n        onlyWithState(ChannelState.Open)\r\n    {\r\n        // validating update transaction\r\n        require (sequenceNumber < _sequenceNumber);\r\n        require (channelVolume > _balanceShift);\r\n        require (channelVolume + _balanceShift > channelVolume);\r\n\r\n        // validating signatures\r\n        bytes32 rawMsg = messageToBeSigned(\r\n            _sequenceNumber,\r\n            _balanceShift,\r\n            _immediateClose); // message encrypted by both counterparts\r\n\r\n        require (signatureCorrect(payer, rawMsg, _vA, _rA, _sA));\r\n        require (signatureCorrect(payee, rawMsg, _vB, _rB, _sB));\r\n\r\n        // updating channel state\r\n        sequenceNumber = _sequenceNumber;\r\n        balanceShift = _balanceShift;\r\n        lastUpdateBlock = block.number;\r\n        emit UpdateTxPosted();\r\n        if (_immediateClose) {\r\n            closeChannel();\r\n        }\r\n    }\r\n\r\n    function cancel ()\r\n        public\r\n        onlyWithState(ChannelState.New)\r\n        onlyPayer\r\n    {\r\n        selfdestruct(payer);\r\n        emit PaymentChannelStateChange(this, ChannelState.New, ChannelState.Closed);\r\n    }\r\n\r\n    function claim ( )\r\n        public\r\n        onlyWithState(ChannelState.Open)\r\n        onlyParticipants\r\n        onlyAfterHoldPeriod\r\n    {\r\n        closeChannel();\r\n    }\r\n\r\n    function closeChannel ( )\r\n        internal\r\n        onlyWithState(ChannelState.Open)\r\n        onlyParticipants\r\n    {\r\n        if (balanceShift > 0) {                 // TODO: check for recursion\r\n            uint256 tmp = balanceShift;\r\n            balanceShift = 0;\r\n            if (payee.send(tmp)) {\r\n                state = ChannelState.Closed;\r\n                selfdestruct(payer);\r\n                emit PaymentChannelStateChange(this, ChannelState.Open, ChannelState.Closed);\r\n            }\r\n        }\r\n    }\r\n\r\n    function signatureCorrect (\r\n        address _account,\r\n        bytes32 _h, uint8 _v, bytes32 _r, bytes32 _s\r\n    )\r\n        public pure returns (bool)\r\n    {\r\n        return _account == ecrecover(_h, _v, _r, _s);\r\n    }\r\n\r\n    function messageToBeSigned (\r\n        uint256 _ord,\r\n        uint256 _balanceShift,\r\n        bool _immediateClose\r\n    )\r\n        public view returns (bytes32)\r\n    {\r\n        byte close;\r\n        if (_immediateClose) {\r\n            close = 0x01;\r\n        }\r\n\r\n        return keccak256(\r\n            bytes32(address(this)),\r\n            bytes32(_ord),\r\n            bytes32(_balanceShift),\r\n            bytes32(channelVolume),\r\n            close);\r\n    }\r\n\r\n    modifier onlyAfterHoldPeriod () {\r\n        require (block.number >= lastUpdateBlock + holdPeriod);\r\n        _;\r\n    }\r\n\r\n    modifier onlyPayer () {\r\n        require (msg.sender == payer);\r\n        _;\r\n    }\r\n\r\n    modifier onlyParticipants () {\r\n        require (msg.sender == payer || msg.sender == payee);\r\n        _;\r\n    }\r\n\r\n    modifier onlyWithState (ChannelState desiredState) {\r\n        require (state == desiredState);\r\n        _;\r\n    }\r\n}\r\n",
  "sourcePath": "D:\\Work\\Fintech\\fastchain\\contracts\\contracts\\PaymentChannel.sol",
  "compiler": {
    "name": "solc",
    "version": "0.4.24+commit.e67f0147.Emscripten.clang"
  },
  "schemaVersion": "2.0.1",
  "updatedAt": "2018-09-30T18:13:24.544Z"
}